:100000000C944E000C946D000C946D000C946D00DB
:100010000C946D000C946D000C946D000C946D00AC
:100020000C946D000C946D000C946D000C946D009C
:100030000C946D000C9484040C946D000C946D0071
:100040000C946D000C946D000C946D000C946D007C
:100050000C946D000C946D000C946D000C946D006C
:100060000C946D000C946D000C946D000C946D005C
:100070000C946D000C946D000C946D000C946D004C
:100080000C946D000C946D000C946D001206170614
:1000900029060E0749066706B906D70611241FBEB2
:1000A000CFEFD0E4DEBFCDBF11E0A0E0B1E0EAE9E0
:1000B000F5E100E00BBF02C007900D92A632B10738
:1000C000D9F721E0A6E2B1E001C01D92A136B20746
:1000D000E1F70E94B0070C94CB0A0C940000CF9378
:1000E000DF9300D01F92CDB7DEB789836A834B833D
:1000F0008B81882371F08A81282F30E081E090E0A5
:1001000002C0880F991F2A95E2F7982F8981892BC1
:100110000EC08A81282F30E081E090E002C0880F75
:10012000991F2A95E2F7982F9095898189230F903E
:100130000F900F90DF91CF910895CF93DF9300D070
:10014000CDB7DEB789836A838A81282F30E081E0CA
:1001500090E002C0880F991F2A95E2F7982F8981B5
:1001600089230F900F90DF91CF910895CF93DF9364
:10017000CDB7DEB781E00E94DD000000DF91CF91B6
:100180000895CF93DF93CDB7DEB784E690E00E9469
:10019000810188E30E94DD0086E00E94DD008FE09F
:1001A0000E94DD0081E00E94DD008AE090E00E9474
:1001B00081010000DF91CF910895CF93DF931F92CB
:1001C000CDB7DEB789838BE290E02BE230E0F90116
:1001D00020812F7BFC01208382E290E02981FC01B9
:1001E00020838BE290E02BE230E0F901208120684F
:1001F000FC01208300008BE290E02BE230E0F9016B
:1002000020812F77FC01208382E090E00E94810111
:1002100000000F90DF91CF910895CF93DF931F924D
:10022000CDB7DEB789838BE290E02BE230E0F901B5
:1002300020812064FC01208382E290E02981FC017E
:1002400020838BE290E02BE230E0F90120812068EE
:10025000FC01208300008BE290E02BE230E0F9010A
:1002600020812F77FC01208381E090E00E948101B2
:1002700000000F90DF91CF910895CF93DF9300D0CE
:1002800000D0CDB7DEB78A837C836B830E94B60033
:100290008A81898311C0898191E0980F99830E9496
:1002A0006A018B819C819C012F5F3F4F3C832B8394
:1002B000FC0180810E940D018B819C81FC01808169
:1002C000882349F700000F900F900F900F90DF9157
:1002D000CF910895CF93DF931F92CDB7DEB7898377
:1002E0008981813128F4898181580E94DD0004C010
:1002F000898181550E94DD0000000F90DF91CF9130
:100300000895CF93DF9300D000D000D0CDB7DEB7F3
:100310009E838D831A82198213C01C821B8206C0A1
:1003200000008B819C8101969C838B838B819C81B7
:1003300087309340ACF389819A8101969A838983AF
:1003400029813A818D819E812817390734F3000075
:1003500026960FB6F894DEBF0FBECDBFDF91CF91CA
:100360000895CF93DF9300D01F92CDB7DEB78B8374
:1003700086E090E00E94AA099A8389838B81882F66
:1003800090E00E94AA099C0189819A81FC01318335
:10039000208389819A81FC01128289819A81FC01E2
:1003A000138289819A81FC01148289819A812B812F
:1003B000FC01258389819A810F900F900F90DF9126
:1003C000CF910895CF93DF9300D0CDB7DEB79A8356
:1003D000898389819A81FC01948181E0992309F0C4
:1003E00080E00F900F90DF91CF910895CF93DF932E
:1003F00000D0CDB7DEB79A83898389819A81FC01C9
:10040000248189819A81FC01958181E0291709F075
:1004100080E00F900F90DF91CF910895CF93DF93FD
:1004200000D0CDB7DEB79A83898389819A81FC0198
:10043000128289819A81FC01138289819A81FC014F
:10044000148200000F900F90DF91CF910895CF9309
:10045000DF9300D01F92CDB7DEB79A8389836B8379
:1004600089819A81FC01248189819A81FC0185819D
:100470002817C0F589819A81FC0120813181898109
:100480009A81FC018381882F90E0820F931F2B813A
:10049000FC01208389819A81FC01838121E0280F5E
:1004A00089819A81FC01238389819A81FC012381BE
:1004B00089819A81FC019581822F692F0E9473099D
:1004C000892F282F89819A81FC01238389819A8130
:1004D000FC01848121E0280F89819A81FC01248319
:1004E00080E001C081E00F900F900F90DF91CF91DD
:1004F0000895CF93DF9300D01F92CDB7DEB79B83D3
:100500008A838A819B81FC018481882309F447C006
:100510008A819B81FC01208131818A819B81FC0140
:100520008281882F90E0820F931FFC018081898354
:100530008A819B81FC01208131818A819B81FC0120
:100540008281882F90E0820F931FFC0110828A81A4
:100550009B81FC01828121E0280F8A819B81FC0123
:1005600022838A819B81FC0122818A819B81FC01FB
:100570009581822F692F0E947309892F282F8A81E4
:100580009B81FC0122838A819B81FC0184812FEF66
:10059000280F8A819B81FC012483898101C080E02E
:1005A0000F900F900F90DF91CF910895CF93DF932D
:1005B000CDB7DEB72C970FB6F894DEBF0FBECDBF18
:1005C0006D837E838F83988729873A874B875C87E3
:1005D0008D819E81AF81B88529853A854B855C8563
:1005E000BC01CD010E947F09DC01CB0189839A8384
:1005F000AB83BC8389819A81AB81BC81892B8A2B97
:100600008B2B29F489859A85AB85BC8511C089859A
:100610009A85AB85BC858D839E83AF83B88789819E
:100620009A81AB81BC8189879A87AB87BC87D0CF01
:10063000BC01CD012C960FB6F894DEBF0FBECDBF26
:10064000DF91CF910895CF93DF9300D01F92CDB764
:10065000DEB78B8385E090E00E94AA099A838983A4
:100660008B81882F90E00E94AA099C0189819A8140
:10067000FC013183208389819A81FC011282898166
:100680009A81FC01138289819A812B81FC01248348
:1006900089819A810F900F900F90DF91CF910895EB
:1006A000CF93DF9300D0CDB7DEB79A83898389815A
:1006B0009A81FC01938181E0992309F080E00F90F9
:1006C0000F90DF91CF910895CF93DF9300D0CDB7F6
:1006D000DEB79A83898389819A81FC01238189818C
:1006E0009A81FC01948181E0291709F080E00F9044
:1006F0000F90DF91CF910895CF93DF9300D0CDB7C6
:10070000DEB79A83898389819A81FC01128289816B
:100710009A81FC01138200000F900F90DF91CF911E
:100720000895CF93DF9300D01F92CDB7DEB79A83A1
:1007300089836B8389819A81FC01238189819A81D4
:10074000FC018481281730F589819A81FC01208180
:10075000318189819A81FC018281882F90E0820F0A
:10076000931F2B81FC01208389819A81FC01838165
:1007700021E0280F89819A81FC01238389819A8154
:10078000FC01828121E0280F89819A81FC0122836A
:1007900080E001C081E00F900F900F90DF91CF912A
:1007A0000895CF93DF9300D0CDB7DEB79A838983C6
:1007B00089819A81FC018381882321F189819A8131
:1007C000FC0183812FEF280F89819A81FC0123830B
:1007D00089819A81FC0182812FEF280F89819A817A
:1007E000FC01228389819A81FC01208131818981E8
:1007F0009A81FC018281882F90E0820F931FFC0177
:10080000808101C080E00F900F90DF91CF9108951B
:10081000CF93DF9300D000D0CDB7DEB769837A8362
:100820008B839C8389819A81AB81BC8180930001F9
:1008300090930101A0930201B09303018091000104
:1008400090910101A0910201B091030180932701D1
:1008500090932801A0932901B0932A0100000F90E2
:100860000F900F900F90DF91CF910895CF93DF936A
:10087000CDB7DEB781E890E02BE0FC01208388E86B
:1008800090E02DE730E0FC01318320838FE690E09B
:1008900022E0FC01208384E890E0FC0111821082B8
:1008A0008091000190910101A0910201B09103019A
:1008B0008093270190932801A0932901B0932A01E6
:1008C0008FE590E02FE530E0F90120812068FC0100
:1008D00020830000DF91CF910895CF93DF93CDB7B0
:1008E000DEB781E890E0FC0110820000DF91CF913B
:1008F0000895CF93DF93CDB7DEB781E080932601D3
:100900000000DF91CF9108951F920F9200905F0039
:100910000F92112400905B000F922F933F934F93FF
:100920005F936F937F938F939F93AF93BF93EF9357
:10093000FF93CF93DF93CDB7DEB7809127019091DE
:100940002801A0912901B0912A010197A109B109BB
:100950008093270190932801A0932901B0932A0145
:100960008091270190912801A0912901B0912A013D
:10097000892B8A2B8B2B91F40E94790480910001A2
:1009800090910101A0910201B09103018093270190
:1009900090932801A0932901B0932A010000DF91D0
:1009A000CF91FF91EF91BF91AF919F918F917F91E7
:1009B0006F915F914F913F912F910F9000925B004B
:1009C0000F9000925F000F901F901895CF93DF93C8
:1009D00000D01F92CDB7DEB789837B836A8389817C
:1009E0008A3031F48A819B81BC018DE00E94E6044B
:1009F00080EC90E0FC018081882F90E08072992744
:100A0000892BB1F386EC90E02981FC01208380E002
:100A100090E00F900F900F90DF91CF910895CF93BA
:100A2000DF93CDB7DEB78BE290E02BE230E0F90147
:100A300020812260FC0120838BE290E02BE230E0F9
:100A4000F90120812D7FFC0120830000DF91CF91EF
:100A50000895CF93DF93CDB7DEB78BE290E02BE222
:100A600030E0F90120812160FC0120830000DF914A
:100A7000CF910895CF93DF93CDB7DEB78BE290E0AF
:100A80002BE230E0F90120812E7FFC012083000061
:100A9000DF91CF910895CF93DF9300D0CDB7DEB72C
:100AA0008A838BE290E02BE230E0F90120812B7FFA
:100AB000FC012083198210C08A8188231CF40E94C3
:100AC000290502C00E943A058A81880F8A830E9404
:100AD0000F0589818F5F89838981883068F38BE274
:100AE00090E02BE230E0F90120812460FC012083BA
:100AF00000000F900F90DF91CF910895CF93DF9377
:100B000000D0CDB7DEB79A83898389819A818130FD
:100B10009105E9F18230910509F444C0892B09F06F
:100B20004EC080912E01882371F480912E018F5F39
:100B300080932E018091120180932F0180911301E7
:100B40008093300142C080912E01813071F48091F8
:100B50002E018F5F80932E018091140180932F01CD
:100B6000809115018093300130C080912E01823038
:100B700059F410922E018091160180932F018091DB
:100B800017018093300121C010922E011EC080E217
:100B900090E0FC0180818F3FA9F482E090E09A838D
:100BA000898310C080E290E0FC018081882F90E072
:100BB00081709927892B41F41A82198205C01A8203
:100BC000198203C0000001C0000088E290E020917B
:100BD0002F01FC012083809130010E944B05898107
:100BE0009A810F900F90DF91CF910895CF93DF936B
:100BF00000D0CDB7DEB79A83898389819A81092E87
:100C0000000CAA0BBB0B40E050E027E030E0841B57
:100C1000950B2817390708F401C18A5B9F4FFC0127
:100C20000C94A10981E090E09A838983FBC08091B4
:100C30001601813041F482E090E09A83898382E05A
:100C400080931601EFC0809116018695809316015E
:100C5000E9C080911601803441F481E090E09A83EC
:100C6000898380E28093160105C080911601880F68
:100C70008093160180912D01813009F0D2C08091BE
:100C80001601803409F0CDC084E090E09A83898316
:100C9000C8C0809117018F3E59F485E090E09A8397
:100CA000898380911701869580688093170109C018
:100CB00080911701882F90E0880F991F81608093A1
:100CC000170180911601869580931601ABC0809123
:100CD00017018E3FB9F480911601813099F486E0B6
:100CE00090E09A83898380911701882F90E0880F84
:100CF000991F81608093170180911601880F80935E
:100D0000160190C0809117018E3F99F484E090E025
:100D10009A83898380911701882F90E0880F991F0B
:100D2000816080931701809116018695809316014A
:100D300079C080911601813081F487E090E09A8338
:100D4000898380911701869580688093170180912F
:100D50001601880F8093160165C080911701869552
:100D60008068809317018091160186958093160103
:100D700059C0809117018F3E59F487E090E09A8323
:100D8000898380911701869580688093170109C037
:100D900080911701882F90E0880F991F81608093C0
:100DA000170180911601880F809316013BC0809136
:100DB00017018E3F99F486E090E09A8389838091B1
:100DC0001701882F90E0880F991F81608093170189
:100DD00080911601880F8093160124C0809116011E
:100DE000803881F485E090E09A83898380911701AF
:100DF000869580688093170180911601869580936F
:100E0000160110C0809117018695806880931701A4
:100E100080911601880F8093160104C01A821982EE
:100E200001C0000089819A810F900F90DF91CF91CE
:100E30000895CF93DF9300D0CDB7DEB79A8389832F
:100E400089819A81009719F0019731F017C081E0EC
:100E500090E09A83898316C080911601813089F4CD
:100E600080911701809590911301892B8093130134
:100E700080912D018F5F80932D0103C01A8219820A
:100E800001C0000089819A810F900F90DF91CF916E
:100E90000895CF93DF9300D0CDB7DEB79A838983CF
:100EA00089819A818130910559F082309105C9F18B
:100EB000892B09F04AC081E090E09A83898349C078
:100EC00080E290E0FC018081882F90E0817099277A
:100ED000892B79F480911501883F59F08091150193
:100EE000869580688093150182E090E09A838983DB
:100EF0002FC080E290E0FC018081882F90E081701B
:100F00009927892B29F580911501882F90E0880F6A
:100F1000991F81608093150182E090E09A83898314
:100F200017C080E290E0FC018081882F90E0817002
:100F30009927892B29F482E090E09A83898309C05C
:100F400081E090E09A83898304C01A82198201C0EB
:100F5000000089819A810F900F90DF91CF910895C1
:100F60000F931F93CF93DF93CDB7DEB763970FB681
:100F7000F894DEBF0FBECDBF81E290E0FC0110828D
:100F800082E290E02FEFFC01208387E290E02FEFD8
:100F9000FC01208388E290E0FC0110828AE290E06C
:100FA0002FEFFC0120838BE290E0FC01108288E0AF
:100FB000EEE1F1E0DE011C9601900D928A95E1F7D9
:100FC00084E090E09A8789878FEF8B878B85809369
:100FD000310181E090E0A0E0B0E080933201909395
:100FE0003301A0933401B093350180913201909187
:100FF0003301A0913401B091350180933601909373
:101000003701A0933801B09339018EE795E09093B2
:101010003B0180933A018B8580933C0184EF91E002
:10102000A0E0B0E080933D0190933E01A0933F018A
:10103000B093400180913D0190913E01A0913F010C
:10104000B09140018093410190934201A0934301EC
:10105000B093440186EF95E090934601809345015B
:101060008B858093470180E991E0A0E0B0E0809318
:10107000480190934901A0934A01B0934B0180919C
:10108000480190914901A0914A01B0914B01809390
:101090004C0190934D01A0934E01B0934F0189E113
:1010A00097E090935101809350018B85809352017A
:1010B00084E690E0A0E0B0E0809353019093540167
:1010C000A0935501B0935601809153019091540122
:1010D000A0915501B091560180935701909358010A
:1010E000A0935901B0935A0189E497E090935C0171
:1010F00080935B018C859D85FC0181819281A38118
:10110000B48189839A83AB83BC8381E090E09E8322
:101110008D8325C08D819E81880F991F9E012F5F31
:101120003F4F820F931F0B96FC0180819181FC0140
:10113000218132814381548189819A81AB81BC8133
:10114000BC01CD010E94D602DC01CB0189839A83C8
:10115000AB83BC838D819E8101969E838D832D817F
:101160003E8189859A8528173907A0F289819A815D
:10117000AB81BC81BC01CD010E9408040E943604F1
:1011800018861F82A0C08F819885880F991F9E01A5
:101190002F5F3F4F820F931F0B96FC01808191813F
:1011A000FC0125813681478150858F819885880F84
:1011B000991FBE016F5F7F4F860F971F0B96FC0133
:1011C00080819181FC0181819281A381B481281762
:1011D00039074A075B0708F445C08F819885880F57
:1011E000991F9E012F5F3F4F820F931F0B96FC01AB
:1011F000008111818F819885880F991F9E012F5F33
:101200003F4F820F931F0B96FC0180819181FC015F
:10121000218532858F819885880F991FAE014F5F98
:101220005F4F840F951F0B96FC0180819181FC011B
:101230008081082E000C990BF9010995F801808333
:101240008F819885880F991F9E012F5F3F4F820FD6
:10125000931F0B96FC0180819181FC0115821682FF
:10126000178210868F819885880F991F9E012F5FA6
:101270003F4F820F931F0B96FC01608171818F811C
:101280009885880F991F9E012F5F3F4F820F931FF4
:101290000B96FC0180819181FC012581368147817B
:1012A000508589819A81AB81BC81820F931FA41FD5
:1012B000B51FFB0185839683A783B0878F819885AF
:1012C000019698878F832F81388589859A8528177D
:1012D000390708F458CF0000809126018823E1F3F4
:1012E000109226014DCF991B79E004C0991F9617E3
:1012F00008F0961B881F7A95C9F780950895A1E29A
:101300001A2EAA1BBB1BFD010DC0AA1FBB1FEE1F7F
:10131000FF1FA217B307E407F50720F0A21BB30BCA
:10132000E40BF50B661F771F881F991F1A9469F746
:1013300060957095809590959B01AC01BD01CF01A2
:101340000895EE0FFF1F0024001C0BBE0790F691BE
:10135000E02D09940F931F93CF93DF938230910573
:1013600010F482E090E0E0915F01F091600120E0F4
:1013700030E0A0E0B0E0309719F140815181028166
:10138000138148175907C8F08417950769F4109717
:1013900031F012960C93129713961C9327C000936A
:1013A0005F011093600122C02115310519F0421729
:1013B000530718F49A01BD01EF01DF01F801DBCFFB
:1013C00021153105F9F0281B390B2430310580F443
:1013D0008A819B816115710521F0FB0193838283D2
:1013E00004C09093600180935F01FE01329644C077
:1013F000FE01E20FF31F819391932250310939834B
:1014000028833AC020915D0130915E01232B41F485
:1014100020911A0130911B0130935E0120935D01F0
:1014200020911801309119012115310541F42DB792
:101430003EB740911C0150911D01241B350BE091DA
:101440005D01F0915E01E217F307A0F42E1B3F0B44
:101450002817390778F0AC014E5F5F4F2417350726
:1014600048F04E0F5F1F50935E0140935D018193E2
:10147000919302C0E0E0F0E0CF01DF91CF911F91A6
:101480000F910895CF93DF93009709F481C0FC0179
:10149000329713821282A0915F01B0916001109780
:1014A00081F420813181820F931F20915D01309161
:1014B0005E012817390751F5F0935E01E0935D0155
:1014C00067C0ED0120E030E0CE17DF0740F44A812D
:1014D0005B819E0141155105F1F0EA01F5CFD383FF
:1014E000C28340815181840F951FC817D90759F4D1
:1014F00088819981840F951F0296918380838A81C8
:101500009B81938382832115310529F4F093600137
:10151000E0935F013DC0E901FB83EA834991599162
:10152000C40FD51FEC17FD0761F480819181840FF2
:10153000951F0296E90199838883828193819B8319
:101540008A83E0E0F0E012968D919C9113970097CA
:1015500019F0FD01DC01F7CF8D919C9111979D0150
:101560002E5F3F4F820F931F20915D0130915E01EE
:101570002817390769F4309729F410926001109206
:101580005F0102C013821282B0935E01A0935D01DD
:0A159000DF91CF910895F894FFCF8A
:10159A00010000000000000200000000E604000054
:1015AA00000001E080F140FB0000610120003101F0
:0615BA003C014701520153
:00000001FF
