:100000000C9456000C9475000C9475000C947500BB
:100010000C9475000C9475000C9475000C9475008C
:100020000C9475000C9475000C9475000C9475007C
:100030000C9475000C948C040C9475000C94750051
:100040000C9475000C9475000C9475000C9475005C
:100050000C9475000C9475000C9475000C9475004C
:100060000C9475000C9475000C9475000C9475003C
:100070000C9475000C9475000C9475000C9475002C
:100080000C9475000C9475000C9475000608140807
:100090002608E4095C08AE0800097809570B730BC1
:1000A000920BC90B070CE80BF50B000C11241FBEBB
:1000B000CFEFD0E4DEBFCDBF13E0A0E0B1E0ECE5D0
:1000C000F0E200E00BBF02C007900D92AC37B10721
:1000D000D9F723E0ACE7B3E001C01D92A43DB2071D
:1000E000E1F70E94B80C0C942C100C940000CF93F4
:1000F000DF9300D01F92CDB7DEB789836A834B832D
:100100008B81882371F08A81282F30E081E090E094
:1001100002C0880F991F2A95E2F7982F8981892BB1
:100120000EC08A81282F30E081E090E002C0880F65
:10013000991F2A95E2F7982F9095898189230F902E
:100140000F900F90DF91CF910895CF93DF9300D060
:10015000CDB7DEB789836A838A81282F30E081E0BA
:1001600090E002C0880F991F2A95E2F7982F8981A5
:1001700089230F900F90DF91CF910895CF93DF9354
:10018000CDB7DEB781E00E94E5000000DF91CF919E
:100190000895CF93DF93CDB7DEB784E690E00E9459
:1001A000890188E30E94E50086E00E94E5008FE077
:1001B0000E94E50081E00E94E5008AE090E00E9454
:1001C00089010000DF91CF910895CF93DF931F92B3
:1001D000CDB7DEB789838BE290E02BE230E0F90106
:1001E00020812F7BFC01208382E290E02981FC01A9
:1001F00020838BE290E02BE230E0F901208120683F
:10020000FC01208300008BE290E02BE230E0F9015A
:1002100020812F77FC01208382E090E00E948901F9
:1002200000000F90DF91CF910895CF93DF931F923D
:10023000CDB7DEB789838BE290E02BE230E0F901A5
:1002400020812064FC01208382E290E02981FC016E
:1002500020838BE290E02BE230E0F90120812068DE
:10026000FC01208300008BE290E02BE230E0F901FA
:1002700020812F77FC01208381E090E00E9489019A
:1002800000000F90DF91CF910895CF93DF9300D0BE
:1002900000D0CDB7DEB78A837C836B830E94BE001B
:1002A0008A81898311C0898191E0980F99830E9486
:1002B00072018B819C819C012F5F3F4F3C832B837C
:1002C000FC0180810E9415018B819C81FC01808151
:1002D000882349F700000F900F900F900F90DF9147
:1002E000CF910895CF93DF931F92CDB7DEB7898367
:1002F0008981813128F4898181580E94E50004C0F8
:10030000898181550E94E50000000F90DF91CF9117
:100310000895CF93DF9300D000D000D0CDB7DEB7E3
:100320009E838D831A82198213C01C821B8206C091
:1003300000008B819C8101969C838B838B819C81A7
:1003400087309340ACF389819A8101969A8389839F
:1003500029813A818D819E812817390734F3000065
:1003600026960FB6F894DEBF0FBECDBFDF91CF91BA
:100370000895CF93DF9300D01F92CDB7DEB78B8364
:1003800086E090E00E940B0F9A8389838B81882FEF
:1003900090E00E940B0F9C0189819A81FC013183BE
:1003A000208389819A81FC01128289819A81FC01D2
:1003B000138289819A81FC01148289819A812B811F
:1003C000FC01258389819A810F900F900F90DF9116
:1003D000CF910895CF93DF9300D0CDB7DEB79A8346
:1003E000898389819A81FC01948181E0992309F0B4
:1003F00080E00F900F90DF91CF910895CF93DF931E
:1004000000D0CDB7DEB79A83898389819A81FC01B8
:10041000248189819A81FC01958181E0291709F065
:1004200080E00F900F90DF91CF910895CF93DF93ED
:1004300000D0CDB7DEB79A83898389819A81FC0188
:10044000128289819A81FC01138289819A81FC013F
:10045000148200000F900F90DF91CF910895CF93F9
:10046000DF9300D01F92CDB7DEB79A8389836B8369
:1004700089819A81FC01248189819A81FC0185818D
:100480002817C0F589819A81FC01208131818981F9
:100490009A81FC018381882F90E0820F931F2B812A
:1004A000FC01208389819A81FC01838121E0280F4E
:1004B00089819A81FC01238389819A81FC012381AE
:1004C00089819A81FC019581822F692F0E94D40E27
:1004D000892F282F89819A81FC01238389819A8120
:1004E000FC01848121E0280F89819A81FC01248309
:1004F00080E001C081E00F900F900F90DF91CF91CD
:100500000895CF93DF9300D01F92CDB7DEB79B83C2
:100510008A838A819B81FC018481882309F447C0F6
:100520008A819B81FC01208131818A819B81FC0130
:100530008281882F90E0820F931FFC018081898344
:100540008A819B81FC01208131818A819B81FC0110
:100550008281882F90E0820F931FFC0110828A8194
:100560009B81FC01828121E0280F8A819B81FC0113
:1005700022838A819B81FC0122818A819B81FC01EB
:100580009581822F692F0E94D40E892F282F8A816E
:100590009B81FC0122838A819B81FC0184812FEF56
:1005A000280F8A819B81FC012483898101C080E01E
:1005B0000F900F900F90DF91CF910895CF93DF931D
:1005C000CDB7DEB72C970FB6F894DEBF0FBECDBF08
:1005D0006D837E838F83988729873A874B875C87D3
:1005E0008D819E81AF81B88529853A854B855C8553
:1005F000BC01CD010E94E00EDC01CB0189839A830E
:10060000AB83BC8389819A81AB81BC81892B8A2B86
:100610008B2B29F489859A85AB85BC8511C089858A
:100620009A85AB85BC858D839E83AF83B88789818E
:100630009A81AB81BC8189879A87AB87BC87D0CFF1
:10064000BC01CD012C960FB6F894DEBF0FBECDBF16
:10065000DF91CF910895CF93DF9300D01F92CDB754
:10066000DEB78B8385E090E00E940B0F9A8389832D
:100670008B81882F90E00E940B0F9C0189819A81C9
:10068000FC013183208389819A81FC011282898156
:100690009A81FC01138289819A812B81FC01248338
:1006A00089819A810F900F900F90DF91CF910895DB
:1006B000CF93DF9300D0CDB7DEB79A83898389814A
:1006C0009A81FC01938181E0992309F080E00F90E9
:1006D0000F90DF91CF910895CF93DF9300D0CDB7E6
:1006E000DEB79A83898389819A81FC01238189817C
:1006F0009A81FC01948181E0291709F080E00F9034
:100700000F90DF91CF910895CF93DF9300D0CDB7B5
:10071000DEB79A83898389819A81FC01128289815B
:100720009A81FC01138200000F900F90DF91CF910E
:100730000895CF93DF9300D01F92CDB7DEB79A8391
:1007400089836B8389819A81FC01238189819A81C4
:10075000FC018481281730F589819A81FC01208170
:10076000318189819A81FC018281882F90E0820FFA
:10077000931F2B81FC01208389819A81FC01838155
:1007800021E0280F89819A81FC01238389819A8144
:10079000FC01828121E0280F89819A81FC0122835A
:1007A00080E001C081E00F900F900F90DF91CF911A
:1007B0000895CF93DF9300D0CDB7DEB79A838983B6
:1007C00089819A81FC018381882321F189819A8121
:1007D000FC0183812FEF280F89819A81FC012383FB
:1007E00089819A81FC0182812FEF280F89819A816A
:1007F000FC01228389819A81FC01208131818981D8
:100800009A81FC018281882F90E0820F931FFC0166
:10081000808101C080E00F900F90DF91CF9108950B
:10082000CF93DF9300D000D0CDB7DEB769837A8352
:100830008B839C8389819A81AB81BC8180930001E9
:1008400090930101A0930201B093030180910001F4
:1008500090910101A0910201B091030180937D0369
:1008600090937E03A0937F03B093800300000F90CA
:100870000F900F900F90DF91CF910895CF93DF935A
:10088000CDB7DEB781E890E02BE0FC01208388E85B
:1008900090E02DE730E0FC01318320838FE690E08B
:1008A00022E0FC01208384E890E0FC0111821082A8
:1008B0008091000190910101A0910201B09103018A
:1008C00080937D0390937E03A0937F03B093800376
:1008D0008FE590E02FE530E0F90120812068FC01F0
:1008E00020830000DF91CF910895CF93DF93CDB7A0
:1008F000DEB781E890E0FC0110820000DF91CF912B
:100900000895CF93DF93CDB7DEB781E080937C036A
:100910000000DF91CF9108951F920F9200905F0029
:100920000F92112400905B000F922F933F934F93EF
:100930005F936F937F938F939F93AF93BF93EF9347
:10094000FF93CF93DF93CDB7DEB780917D03909176
:100950007E03A0917F03B09180030197A109B109A3
:1009600080937D0390937E03A0937F03B0938003D5
:1009700080917D0390917E03A0917F03B0918003CD
:10098000892B8A2B8B2B91F40E948104809100018A
:1009900090910101A0910201B091030180937D0328
:1009A00090937E03A0937F03B09380030000DF91B8
:1009B000CF91FF91EF91BF91AF919F918F917F91D7
:1009C0006F915F914F913F912F910F9000925B003B
:1009D0000F9000925F000F901F901895CF93DF93B8
:1009E00000D0CDB7DEB78A8385E290E025E230E023
:1009F000F90120812D7FFC01208319822EC08A817C
:100A0000882354F485E290E025E230E0F90120816A
:100A10002860FC01208309C085E290E025E230E0F7
:100A2000F9012081277FFC0120838A81880F8A8336
:100A300085E290E025E230E0F90120812061FC01AF
:100A4000208385E290E025E230E0F90120812F7ECD
:100A5000FC01208389818F5F89838981883078F2C6
:100A600085E290E025E230E0F90120812260FC017E
:100A7000208300000F900F90DF91CF910895CF93C6
:100A8000DF9300D0CDB7DEB78A8319821CC08A817C
:100A9000082E000C990B9C01205231098981482FA6
:100AA00050E0C901880F991F880F991F820F931F6B
:100AB000840F951F805E9E4FFC0180810E94EE0492
:100AC00089818F5F89838981853008F300000F90C9
:100AD0000F90DF91CF910895CF93DF9300D0CDB7E2
:100AE000DEB79A8389830BC089819A819C012F5F2D
:100AF0003F4F3A832983FC0180810E943F05898111
:100B00009A81FC018081882379F700000F900F9073
:100B1000DF91CF910895CF93DF9300D0CDB7DEB7AB
:100B20001A82198208C080E00E94EE0489819A81AD
:100B300001969A83898389819A81883F914098F3AD
:100B400085E290E025E230E0F90120812B7FFC0175
:100B5000208380E40E94EE0480E80E94EE0485E297
:100B600090E025E230E0F90120812460FC0120833F
:100B700000000F900F90DF91CF910895CF93DF93F6
:100B8000CDB7DEB785E290E025E230E0F9012081C3
:100B90002E7FFC01208382E390E00E94890185E2A0
:100BA00090E025E230E0F90120812160FC01208302
:100BB00083E20E94EE0480E90E94EE0480E20E943B
:100BC000EE048CE00E94EE0485E290E025E230E045
:100BD000F90120812460FC0120830E948B05000024
:100BE000DF91CF910895CF93DF9300D01F92CDB7BF
:100BF000DEB789837B836A8389818A3031F48A8175
:100C00009B81BC018DE00E94F30580EC90E0FC012B
:100C10008081882F90E080729927892BB1F386EC30
:100C200090E02981FC01208380E090E00F900F90FC
:100C30000F90DF91CF910895CF93DF93CDB7DEB7BB
:100C40008BE290E02BE230E0F90120812260FC0190
:100C500020838BE290E02BE230E0F90120812D7FB0
:100C6000FC0120830000DF91CF910895CF93DF93A3
:100C7000CDB7DEB78BE290E02BE230E0F9012081C6
:100C80002160FC0120830000DF91CF910895CF9374
:100C9000DF93CDB7DEB78BE290E02BE230E0F901D5
:100CA00020812E7FFC0120830000DF91CF910895E9
:100CB000CF93DF9300D0CDB7DEB78A838BE290E08D
:100CC0002BE230E0F90120812B7FFC012083198287
:100CD00010C08A8188231CF40E94360602C00E943C
:100CE00047068A81880F8A830E941C0689818F5F4C
:100CF00089838981883068F38BE290E02BE230E0D1
:100D0000F90120812460FC01208300000F900F90E6
:100D1000DF91CF910895CF93DF9300D0CDB7DEB7A9
:100D20009A83898389819A818230910509F4F8C078
:100D30008330910534F4009761F0019709F4CAC03B
:100D40002CC18330910509F410C1049709F418C12E
:100D500024C180918A0390918B03892B69F480913F
:100D60008A0390918B03019690938B0380938A035F
:100D70008FEF8093190194C080918A0390918B0327
:100D8000019791F480918A0390918B03019690933F
:100D90008B0380938A038091120180938C0380914E
:100DA0001301809319017CC080918A0390918B0379
:100DB000029769F480918A0390918B030196909336
:100DC0008B0380938A038FEF8093190169C0809110
:100DD0008A0390918B03039791F480918A039091F9
:100DE0008B03019690938B0380938A038091140167
:100DF00080938C03809115018093190151C08091DB
:100E00008A0390918B03049769F480918A039091EF
:100E10008B03019690938B0380938A038FEF8093CB
:100E200019013EC080918A0390918B03059771F45C
:100E300080918A0390918B03019690938B0380930A
:100E40008A0380911601809319012AC080918A0338
:100E500090918B03069769F480918A0390918B039C
:100E6000019690938B0380938A038FEF80931901EF
:100E700017C080918A0390918B03079769F41092B1
:100E80008B0310928A038091170180938C038091C9
:100E900018018093190104C010928B0310928A03E9
:100EA00080918103882341F081E090E09A838983D7
:100EB00010928B0310928A0380918203882309F495
:100EC0006FC082E090E09A83898310928B03109226
:100ED0008A0366C080918A0390918B030196909358
:100EE0008B0380938A038FEF80938C0380EE809333
:100EF000190180918903882F90E082709927892BAE
:100F000009F450C01A82198210928B0310928A033E
:100F100010928C038FEF809319011092810342C0CD
:100F200080918A0390918B03019690938B03809319
:100F30008A038FEF80938C038BEF8093190180914C
:100F40008903882F90E082709927892B69F11A8292
:100F5000198210928B0310928A0310928C038FEFE8
:100F600080931901109282031FC080E290E0FC017F
:100F700080818F3FD9F484E090E09A83898316C002
:100F800080E290E0FC018081882F90E081709927B9
:100F9000892B71F41A8219820BC01A82198209C036
:100FA000000007C0000005C0000003C0000001C031
:100FB000000088E290E020918C03FC012083809166
:100FC00019010E94580689819A810F900F90DF9134
:100FD000CF910895CF93DF9300D0CDB7DEB79A833A
:100FE000898389819A81092E000CAA0BBB0B40E0F2
:100FF00050E027E030E0841B950B2817390708F4F0
:10100000E3C18A5B9F4FFC010C94020F809189031E
:10101000882F90E082709927892B09F4D8C181E04C
:1010200090E09A838983D3C180911701813041F484
:1010300082E090E09A83898382E080931701CEC199
:1010400080911701869580931701C8C1809117017F
:10105000803841F481E090E09A83898380E4809332
:10106000170105C080911701880F809317018091A7
:101070001701803851F4909118018091160198174A
:1010800021F484E090E09A8389838091170180386D
:1010900009F09FC19091180180911501981709F4EA
:1010A00098C19091180180911601981709F491C187
:1010B00081E0809382038DC1809118018F3EA1F45D
:1010C00080911701813081F487E090E09A838983D1
:1010D000809118018695806880931801809117018E
:1010E000880F809317017AC1809118018F3E81F497
:1010F00085E090E09A8389838091180186958068C5
:10110000809318018091170186958093170166C11D
:1011100080911701813099F486E090E09A83898369
:1011200080911801882F90E0880F991F816080932B
:10113000180180911701880F809317014FC180918A
:101140001801882F90E0880F991F81608093180103
:101150008091170186958093170140C180911801F5
:101160008E3FB9F480911701813099F486E090E0C8
:101170009A83898380911801882F90E0880F991FA6
:1011800081608093180180911701880F8093170167
:1011900025C1809118018E3F99F484E090E09A83F4
:1011A000898380911801882F90E0880F991F8160B2
:1011B00080931801809117018695809317010EC1C5
:1011C00080911701813081F487E090E09A838983D0
:1011D000809118018695806880931801809117018D
:1011E000880F80931701FAC0809118018695806856
:1011F0008093180180911701869580931701EEC0A6
:10120000809118018F3EA1F480911701803881F4FC
:1012100085E090E09A8389838091180186958068A3
:10122000809318018091170186958093170149C01A
:10123000809118018F3E81F487E090E09A83898342
:10124000809118018695806880931801809117011C
:10125000880F8093170135C080911701803819F5E8
:101260009091180180911501981799F084E090E011
:101270009A83898380911801882F90E0880F991FA5
:1012800081608093180180911701869580931701E2
:1012900018C081E090E09A83898380911701869538
:1012A000809317010EC080911801882F90E0880F5D
:1012B000991F81608093180180911701880F809396
:1012C000170180911701803809F085C090911801AD
:1012D00080911501981709F47EC0909118018091B2
:1012E0001601981709F477C081E08093820373C0D8
:1012F000809118018E3F71F480911701803851F46C
:1013000084E090E09A838983809117018695809389
:10131000170146C0809118018E3F99F486E090E055
:101320009A83898380911801882F90E0880F991FF4
:1013300081608093180180911701880F80931701B5
:101340002FC080911701803801F59091180180918C
:101350001501981781F085E090E09A838983809148
:1013600018018695806880931801809117018695F1
:101370008093170115C081E090E09A838983809162
:1013800017018695809317010BC0809118018695EF
:1013900080688093180180911701880F809317014E
:1013A000809117018038C9F490911801809115013E
:1013B000981799F09091180180911601981769F08B
:1013C00081E08093820309C01A82198207C000005D
:1013D00005C0000003C0000001C00000809181032F
:1013E000882341F01A82198280E4809317018BEFE1
:1013F0008093180180918203882341F01A82198218
:1014000080E4809317018BEF80931801809189030A
:10141000882F90E081709927892B41F01A821982D8
:1014200080E4809317018BEF8093180189819A8162
:101430000F900F90DF91CF910895CF93DF9300D05D
:10144000CDB7DEB79A83898389819A81009719F095
:10145000019789F038C080EE809313018091890351
:10146000882F90E082709927892B81F181E090E0AC
:101470009A8389832BC080911701813049F580912F
:10148000130180938D038091180180959091130131
:10149000892B8093130190918D03809113019817EC
:1014A00041F0809183038F5F8093830381E0809379
:1014B0008403809113018F3F59F481E0809381036D
:1014C0001A82198205C01A82198203C0000001C065
:1014D000000080918203882311F01A821982809182
:1014E0008903882F90E081709927892B11F01A8247
:1014F000198289819A810F900F90DF91CF91089581
:10150000CF93DF9300D0CDB7DEB79A8389838981EB
:101510009A818130910511F1823091051CF4892B5B
:1015200049F086C08230910509F45EC0039709F442
:101530006DC07EC08BEF8093150187EF80931601FD
:1015400080918903882F90E082709927892B09F474
:1015500072C081E090E09A8389836DC08091890395
:10156000882F90E084709927892BA9F0809115012C
:101570008E3F89F0809115018695806880931501D2
:1015800080911601869580688093160182E090E034
:101590009A83898328C080918903882F90E088707E
:1015A0009927892BD9F0809116018F3EB9F080914F
:1015B0001501882F90E0880F991F81608093150195
:1015C00080911601882F90E0880F991F8160809389
:1015D000160183E090E09A83898305C081E090E062
:1015E0009A83898329C028C080918903882F90E03D
:1015F00084709927892B29F082E090E09A8389836F
:101600001BC081E090E09A83898316C08091890392
:10161000882F90E088709927892B29F083E090E04B
:101620009A83898309C081E090E09A83898304C00A
:101630001A82198201C0000080918103882311F071
:101640001A82198280918203882311F01A821982EA
:1016500080918903882F90E081709927892B11F060
:101660001A82198289819A810F900F90DF91CF9110
:101670000895CF93DF9300D000D01F92CDB7DEB78F
:101680009D838C838C819D81092E000CAA0BBB0B42
:1016900040E050E027E030E0841B950B2817390725
:1016A00008F4B5C0825B9F4FFC010C94020F1092AE
:1016B00083030E948B0580E093E00E946C051982F1
:1016C00006C080E00E94EE0489818F5F8983898152
:1016D0008438B8F389E193E00E946C0585E090E0DE
:1016E0009D838C839EC00E948B0583E393E00E94C0
:1016F0006C051A8206C080E00E94EE048A818F5F2A
:101700008A838A818839B8F388E493E00E946C0563
:1017100080918303805D0E943F0586E090E09D8379
:101720008C837FC085E290E025E230E0F9012081E2
:101730002B7FFC01208383E40E94EE048FE90E944A
:10174000EE0485E290E025E230E0F901208124609A
:10175000FC01208380E00E94EE0480E00E94EE0401
:1017600080E00E94EE0480E00E94EE0480918303FA
:10177000805D0E943F0586E090E09D838C83809190
:101780008303853009F046C083E090E09D838C831D
:1017900041C00E948B0580E593E00E946C051B828E
:1017A00006C080E00E94EE048B818F5F8B838B816B
:1017B0008436B8F38FE593E00E946C058091830333
:1017C000805D0E943F0587E090E09D838C8329C067
:1017D00080918903882F90E082709927892BE1F00E
:1017E00081E090E09D838C8317C0809184038823DF
:1017F000A9F082E090E09D838C83109284030EC058
:1018000080918103882361F41D821C8209C01D829E
:101810001C8207C0000005C0000003C0000001C01A
:10182000000080918903882F90E081709927892B8F
:1018300011F01D821C828C819D810F900F900F9062
:101840000F900F90DF91CF910895CF93DF9300D049
:10185000CDB7DEB79A83898388E790E0FC01808169
:101860009181909386038093850380918503909165
:1018700086038D3B924020F082E0809389030AC06A
:1018800080918503909186038C32914018F481E019
:10189000809389038CE790E02CE730E0F901208108
:1018A0002160FC01208381E090E00E94890188E7AB
:1018B00090E0FC018081918190938803809387035D
:1018C00080918703909188038D3B924030F0809106
:1018D00089038460809389030CC080918703909171
:1018E00088038C32914028F480918903886080932A
:1018F000890380918503909186038C3B9240B8F4D4
:1019000080918503909186038D32914080F0809183
:101910008703909188038C3B924048F48091870321
:10192000909188038D32914010F0109289038CE7DA
:1019300090E02CE730E0F90120812E7FFC0120832C
:1019400089819A810F900F90DF91CF910895CF9365
:10195000DF93CDB7DEB78AE790E02AE730E0F90100
:101960002081206EFC0120830000DF91CF9108953B
:101970000F931F93CF93DF93CDB7DEB767970FB663
:10198000F894DEBF0FBECDBF81E290E0FC01108273
:1019900082E290E02FEFFC01208384E290E02FEFC1
:1019A000FC01208385E290E023E0FC01208387E2B4
:1019B00090E02FEFFC01208388E290E0FC01108290
:1019C0008AE290E027E0FC0120838BE290E028EFA0
:1019D000FC0120830E94A70C0E94BE058CE0EFE66C
:1019E000F3E0DE011C9601900D928A95E1F786E006
:1019F00090E09A8789878FEF8B878B8580938E0302
:101A000081E090E0A0E0B0E080938F03909390039A
:101A1000A0939103B093920380918F0390919003D0
:101A2000A0919103B09192038093930390939403B8
:101A3000A0939503B09396038BE896E09093980358
:101A4000809397038B858093990380E991E0A0E0D0
:101A5000B0E080939A0390939B03A0939C03B09370
:101A60009D0380919A0390919B03A0919C03B09158
:101A70009D0380939E0390939F03A093A003B09334
:101A8000A1038AEE97E09093A3038093A2038B8532
:101A90008093A40388EC90E0A0E0B0E08093A503DD
:101AA0009093A603A093A703B093A8038091A503E6
:101AB0009091A603A091A703B091A8038093A903D6
:101AC0009093AA03A093AB03B093AC038DE19AE08B
:101AD0009093AE038093AD038B858093AF0382E335
:101AE00090E0A0E0B0E08093B0039093B103A093A6
:101AF000B203B093B3038091B0039091B103A0916E
:101B0000B203B091B3038093B4039093B503A09351
:101B1000B603B093B70380E89AE09093B90380933B
:101B2000B8038B858093BA0384E190E0A0E0B0E035
:101B30008093BB039093BC03A093BD03B093BE03FB
:101B40008091BB039091BC03A091BD03B091BE03F3
:101B50008093BF039093C003A093C103B093C203CB
:101B600085E29CE09093C4038093C3038B858093AC
:101B7000C50386E990E0A0E0B0E08093C6039093AF
:101B8000C703A093C803B093C9038091C603909183
:101B9000C703A091C803B091C9038093CA0390936F
:101BA000CB03A093CC03B093CD0389E39BE0909348
:101BB000CF038093CE038C859D85FC01818192812A
:101BC000A381B48189839A83AB83BC8381E090E055
:101BD0009E838D8325C08D819E81880F991F9E01D4
:101BE0002F5F3F4F820F931F0B96FC0180819181E5
:101BF000FC01218132814381548189819A81AB81A9
:101C0000BC81BC01CD010E94DE02DC01CB018983D5
:101C10009A83AB83BC838D819E8101969E838D8345
:101C20002D813E8189859A8528173907A0F28981FF
:101C30009A81AB81BC81BC01CD010E9410040E943D
:101C40003E0418861F82A0C08F819885880F991F37
:101C50009E012F5F3F4F820F931F0B96FC018081E7
:101C60009181FC0125813681478150858F8198853E
:101C7000880F991FBE016F5F7F4F860F971F0B96CE
:101C8000FC0180819181FC0181819281A381B481D9
:101C9000281739074A075B0708F445C08F819885E4
:101CA000880F991F9E012F5F3F4F820F931F0B9646
:101CB000FC01008111818F819885880F991F9E01F9
:101CC0002F5F3F4F820F931F0B96FC018081918104
:101CD000FC01218532858F819885880F991FAE017F
:101CE0004F5F5F4F840F951F0B96FC0180819181A0
:101CF000FC018081082E000C990BF9010995F8016F
:101D000080838F819885880F991F9E012F5F3F4F99
:101D1000820F931F0B96FC0180819181FC0115823B
:101D20001682178210868F819885880F991F9E01D1
:101D30002F5F3F4F820F931F0B96FC0160817181D3
:101D40008F819885880F991F9E012F5F3F4F820FCB
:101D5000931F0B96FC0180819181FC0125813681C6
:101D60004781508589819A81AB81BC81820F931F05
:101D7000A41FB51FFB0185839683A783B0878F813E
:101D80009885019698878F832F81388589859A85D4
:101D90002817390708F458CF000080917C03882366
:101DA000E1F310927C034DCF991B79E004C0991F99
:101DB000961708F0961B881F7A95C9F780950895A5
:101DC000A1E21A2EAA1BBB1BFD010DC0AA1FBB1F3F
:101DD000EE1FFF1FA217B307E407F50720F0A21BB1
:101DE000B30BE40BF50B661F771F881F991F1A941E
:101DF00069F760957095809590959B01AC01BD0148
:101E0000CF010895EE0FFF1F0024001C0BBE0790AA
:101E1000F691E02D09940F931F93CF93DF938230B7
:101E2000910510F482E090E0E091D203F091D303A9
:101E300020E030E0A0E0B0E0309719F1408151811E
:101E40000281138148175907C8F08417950769F470
:101E5000109731F012960C93129713961C9327C08B
:101E60000093D2031093D30322C02115310519F03A
:101E70004217530718F49A01BD01EF01DF01F80181
:101E8000DBCF21153105F9F0281B390B2430310542
:101E900080F48A819B816115710521F0FB01938398
:101EA000828304C09093D3038093D203FE013296C1
:101EB00044C0FE01E20FF31F819391932250310938
:101EC000398328833AC02091D0033091D103232B4A
:101ED00041F420911C0130911D013093D1032093D6
:101EE000D00320911A0130911B012115310541F4D5
:101EF0002DB73EB740911E0150911F01241B350B99
:101F0000E091D003F091D103E217F307A0F42E1B68
:101F10003F0B2817390778F0AC014E5F5F4F24174D
:101F2000350748F04E0F5F1F5093D1034093D00305
:101F30008193919302C0E0E0F0E0CF01DF91CF9177
:101F40001F910F910895CF93DF93009709F481C0FB
:101F5000FC01329713821282A091D203B091D30375
:101F6000109781F420813181820F931F2091D0033B
:101F70003091D1032817390751F5F093D103E0933D
:101F8000D00367C0ED0120E030E0CE17DF0740F45A
:101F90004A815B819E0141155105F1F0EA01F5CFBF
:101FA000D383C28340815181840F951FC817D907FD
:101FB00059F488819981840F951F029691838083BB
:101FC0008A819B81938382832115310529F4F093C3
:101FD000D303E093D2033DC0E901FB83EA83499137
:101FE0005991C40FD51FEC17FD0761F480819181D1
:101FF000840F951F0296E9019983888382819381DA
:102000009B838A83E0E0F0E012968D919C91139778
:10201000009719F0FD01DC01F7CF8D919C9111978C
:102020009D012E5F3F4F820F931F2091D00330916F
:10203000D1032817390769F4309729F41092D30394
:102040001092D20302C013821282B093D103A093E4
:0C205000D003DF91CF910895F894FFCFEA
:10205C00010000000000000200000000F305000079
:10206C00000001E080FBF740FBFF0000D4032000E0
:10207C00000000000000005F0000000700070014D3
:10208C007F147F14242A7F2A122313086462364992
:10209C005522500005030000001C22410000412283
:1020AC001C0014083E081408083E080800503000B4
:1020BC0000080808080800606000002010080402EE
:1020CC003E5149453E00427F400042615149462104
:1020DC0041454B311814127F1027454545393C4A70
:1020EC0049493001710905033649494936064949C0
:1020FC00291E003636000000563600000814224116
:10210C00001414141414004122140802015109067D
:10211C00324979413E7E1111117E7F494949363E43
:10212C00414141227F4141221C7F494949417F095C
:10213C000909013E4149497A7F0808087F00417F1F
:10214C0041002040413F017F081422417F40404024
:10215C00407F020C027F7F0408107F3E4141413ECC
:10216C007F090909063E4151215E7F09192946461E
:10217C004949493101017F01013F4040403F1F2047
:10218C0040201F3F4038403F631408146307087019
:10219C0008076151494543007F4141000204081082
:1021AC00200041417F0004020102044040404040B5
:1021BC00000102040020545454787F4844443838B9
:1021CC0044444420384444487F3854545418087EBE
:1021DC000901020C5252523E7F0804047800447DDF
:1021EC0040002040443D007F1028440000417F40C7
:1021FC00007C041804787C0804047838444444387F
:10220C007C14141408081414187C7C080404084862
:10221C0054545420043F4440203C4040207C1C201B
:10222C0040201C3C4030403C44281028440C50506A
:10223C00503C4464544C44000836410000007F007C
:10224C0000004136080010080810080000000000CB
:10225C0057656C636F6D6520746F20427269636B98
:10226C0020427265616B6572004D6F7665206A6FF6
:10227C0079737469636B20757020746F207374614B
:10228C0072740047616D6520696E2070726F6772A1
:10229C00657373202E2E2E0073636F72653A2000C7
:1022AC004E6963652120596F7520576F6E2100436D
:1022BC00757272656E742073636F72653A20008E4E
:0C22CC00039903A403AF03BA03C5030089
:00000001FF
