:100000000C944E000C946D000C946D000C946D00DB
:100010000C946D000C946D000C946D000C946D00AC
:100020000C946D000C946D000C946D000C946D009C
:100030000C946D000C9484040C946D000C946D0071
:100040000C946D000C946D000C946D000C946D007C
:100050000C946D000C946D000C946D000C946D006C
:100060000C946D000C946D000C946D000C946D005C
:100070000C946D000C946D000C946D000C946D004C
:100080000C946D000C946D000C946D0018072607FD
:100090003807F6086E07C00712088A0811241FBE29
:1000A000CFEFD0E4DEBFCDBF11E0A0E0B1E0E8E5E6
:1000B000FFE100E00BBF02C007900D92AA32B1072A
:1000C000D9F721E0AAE2B1E001C01D92A537B2073D
:1000D000E1F70E94430B0C94AA0F0C940000CF93FD
:1000E000DF9300D01F92CDB7DEB789836A834B833D
:1000F0008B81882371F08A81282F30E081E090E0A5
:1001000002C0880F991F2A95E2F7982F8981892BC1
:100110000EC08A81282F30E081E090E002C0880F75
:10012000991F2A95E2F7982F9095898189230F903E
:100130000F900F90DF91CF910895CF93DF9300D070
:10014000CDB7DEB789836A838A81282F30E081E0CA
:1001500090E002C0880F991F2A95E2F7982F8981B5
:1001600089230F900F90DF91CF910895CF93DF9364
:10017000CDB7DEB781E00E94DD000000DF91CF91B6
:100180000895CF93DF93CDB7DEB784E690E00E9469
:10019000810188E30E94DD0086E00E94DD008FE09F
:1001A0000E94DD0081E00E94DD008AE090E00E9474
:1001B00081010000DF91CF910895CF93DF931F92CB
:1001C000CDB7DEB789838BE290E02BE230E0F90116
:1001D00020812F7BFC01208382E290E02981FC01B9
:1001E00020838BE290E02BE230E0F901208120684F
:1001F000FC01208300008BE290E02BE230E0F9016B
:1002000020812F77FC01208382E090E00E94810111
:1002100000000F90DF91CF910895CF93DF931F924D
:10022000CDB7DEB789838BE290E02BE230E0F901B5
:1002300020812064FC01208382E290E02981FC017E
:1002400020838BE290E02BE230E0F90120812068EE
:10025000FC01208300008BE290E02BE230E0F9010A
:1002600020812F77FC01208381E090E00E948101B2
:1002700000000F90DF91CF910895CF93DF9300D0CE
:1002800000D0CDB7DEB78A837C836B830E94B60033
:100290008A81898311C0898191E0980F99830E9496
:1002A0006A018B819C819C012F5F3F4F3C832B8394
:1002B000FC0180810E940D018B819C81FC01808169
:1002C000882349F700000F900F900F900F90DF9157
:1002D000CF910895CF93DF931F92CDB7DEB7898377
:1002E0008981813128F4898181580E94DD0004C010
:1002F000898181550E94DD0000000F90DF91CF9130
:100300000895CF93DF9300D000D000D0CDB7DEB7F3
:100310009E838D831A82198213C01C821B8206C0A1
:1003200000008B819C8101969C838B838B819C81B7
:1003300087309340ACF389819A8101969A838983AF
:1003400029813A818D819E812817390734F3000075
:1003500026960FB6F894DEBF0FBECDBFDF91CF91CA
:100360000895CF93DF9300D01F92CDB7DEB78B8374
:1003700086E090E00E94890E9A8389838B81882F82
:1003800090E00E94890E9C0189819A81FC01318351
:10039000208389819A81FC01128289819A81FC01E2
:1003A000138289819A81FC01148289819A812B812F
:1003B000FC01258389819A810F900F900F90DF9126
:1003C000CF910895CF93DF9300D0CDB7DEB79A8356
:1003D000898389819A81FC01948181E0992309F0C4
:1003E00080E00F900F90DF91CF910895CF93DF932E
:1003F00000D0CDB7DEB79A83898389819A81FC01C9
:10040000248189819A81FC01958181E0291709F075
:1004100080E00F900F90DF91CF910895CF93DF93FD
:1004200000D0CDB7DEB79A83898389819A81FC0198
:10043000128289819A81FC01138289819A81FC014F
:10044000148200000F900F90DF91CF910895CF9309
:10045000DF9300D01F92CDB7DEB79A8389836B8379
:1004600089819A81FC01248189819A81FC0185819D
:100470002817C0F589819A81FC0120813181898109
:100480009A81FC018381882F90E0820F931F2B813A
:10049000FC01208389819A81FC01838121E0280F5E
:1004A00089819A81FC01238389819A81FC012381BE
:1004B00089819A81FC019581822F692F0E94370DD5
:1004C000892F282F89819A81FC01238389819A8130
:1004D000FC01848121E0280F89819A81FC01248319
:1004E00080E001C081E00F900F900F90DF91CF91DD
:1004F0000895CF93DF9300D01F92CDB7DEB79B83D3
:100500008A838A819B81FC018481882309F447C006
:100510008A819B81FC01208131818A819B81FC0140
:100520008281882F90E0820F931FFC018081898354
:100530008A819B81FC01208131818A819B81FC0120
:100540008281882F90E0820F931FFC0110828A81A4
:100550009B81FC01828121E0280F8A819B81FC0123
:1005600022838A819B81FC0122818A819B81FC01FB
:100570009581822F692F0E94370D892F282F8A811C
:100580009B81FC0122838A819B81FC0184812FEF66
:10059000280F8A819B81FC012483898101C080E02E
:1005A0000F900F900F90DF91CF910895CF93DF932D
:1005B000CDB7DEB72C970FB6F894DEBF0FBECDBF18
:1005C0006D837E838F83988729873A874B875C87E3
:1005D0008D819E81AF81B88529853A854B855C8563
:1005E000BC01CD010E94430DDC01CB0189839A83BC
:1005F000AB83BC8389819A81AB81BC81892B8A2B97
:100600008B2B29F489859A85AB85BC8511C089859A
:100610009A85AB85BC858D839E83AF83B88789819E
:100620009A81AB81BC8189879A87AB87BC87D0CF01
:10063000BC01CD012C960FB6F894DEBF0FBECDBF26
:10064000DF91CF910895CF93DF9300D01F92CDB764
:10065000DEB78B8385E090E00E94890E9A838983C0
:100660008B81882F90E00E94890E9C0189819A815C
:10067000FC013183208389819A81FC011282898166
:100680009A81FC01138289819A812B81FC01248348
:1006900089819A810F900F900F90DF91CF910895EB
:1006A000CF93DF9300D0CDB7DEB79A83898389815A
:1006B0009A81FC01938181E0992309F080E00F90F9
:1006C0000F90DF91CF910895CF93DF9300D0CDB7F6
:1006D000DEB79A83898389819A81FC01238189818C
:1006E0009A81FC01948181E0291709F080E00F9044
:1006F0000F90DF91CF910895CF93DF9300D0CDB7C6
:10070000DEB79A83898389819A81FC01128289816B
:100710009A81FC01138200000F900F90DF91CF911E
:100720000895CF93DF9300D01F92CDB7DEB79A83A1
:1007300089836B8389819A81FC01238189819A81D4
:10074000FC018481281730F589819A81FC01208180
:10075000318189819A81FC018281882F90E0820F0A
:10076000931F2B81FC01208389819A81FC01838165
:1007700021E0280F89819A81FC01238389819A8154
:10078000FC01828121E0280F89819A81FC0122836A
:1007900080E001C081E00F900F900F90DF91CF912A
:1007A0000895CF93DF9300D0CDB7DEB79A838983C6
:1007B00089819A81FC018381882321F189819A8131
:1007C000FC0183812FEF280F89819A81FC0123830B
:1007D00089819A81FC0182812FEF280F89819A817A
:1007E000FC01228389819A81FC01208131818981E8
:1007F0009A81FC018281882F90E0820F931FFC0177
:10080000808101C080E00F900F90DF91CF9108951B
:10081000CF93DF9300D000D0CDB7DEB769837A8362
:100820008B839C8389819A81AB81BC8180930001F9
:1008300090930101A0930201B09303018091000104
:1008400090910101A0910201B091030180932B01CD
:1008500090932C01A0932D01B0932E0100000F90D6
:100860000F900F900F90DF91CF910895CF93DF936A
:10087000CDB7DEB781E890E02BE0FC01208388E86B
:1008800090E02DE730E0FC01318320838FE690E09B
:1008900022E0FC01208384E890E0FC0111821082B8
:1008A0008091000190910101A0910201B09103019A
:1008B00080932B0190932C01A0932D01B0932E01D6
:1008C0008FE590E02FE530E0F90120812068FC0100
:1008D00020830000DF91CF910895CF93DF93CDB7B0
:1008E000DEB781E890E0FC0110820000DF91CF913B
:1008F0000895CF93DF93CDB7DEB781E080932A01CF
:100900000000DF91CF9108951F920F9200905F0039
:100910000F92112400905B000F922F933F934F93FF
:100920005F936F937F938F939F93AF93BF93EF9357
:10093000FF93CF93DF93CDB7DEB780912B019091DA
:100940002C01A0912D01B0912E010197A109B109AF
:1009500080932B0190932C01A0932D01B0932E0135
:1009600080912B0190912C01A0912D01B0912E012D
:10097000892B8A2B8B2B91F40E94790480910001A2
:1009800090910101A0910201B091030180932B018C
:1009900090932C01A0932D01B0932E010000DF91C4
:1009A000CF91FF91EF91BF91AF919F918F917F91E7
:1009B0006F915F914F913F912F910F9000925B004B
:1009C0000F9000925F000F901F901895CF93DF93C8
:1009D00000D01F92CDB7DEB789837B836A8389817C
:1009E0008A3031F48A819B81BC018DE00E94E6044B
:1009F00080EC90E0FC018081882F90E08072992744
:100A0000892BB1F386EC90E02981FC01208380E002
:100A100090E00F900F900F90DF91CF910895CF93BA
:100A2000DF93CDB7DEB78BE290E02BE230E0F90147
:100A300020812260FC0120838BE290E02BE230E0F9
:100A4000F90120812D7FFC0120830000DF91CF91EF
:100A50000895CF93DF93CDB7DEB78BE290E02BE222
:100A600030E0F90120812160FC0120830000DF914A
:100A7000CF910895CF93DF93CDB7DEB78BE290E0AF
:100A80002BE230E0F90120812E7FFC012083000061
:100A9000DF91CF910895CF93DF9300D0CDB7DEB72C
:100AA0008A838BE290E02BE230E0F90120812B7FFA
:100AB000FC012083198210C08A8188231CF40E94C3
:100AC000290502C00E943A058A81880F8A830E9404
:100AD0000F0589818F5F89838981883068F38BE274
:100AE00090E02BE230E0F90120812460FC012083BA
:100AF00000000F900F90DF91CF910895CF93DF9377
:100B000000D0CDB7DEB79A83898389819A818230FC
:100B1000910509F4FBC08330910534F4009761F02E
:100B2000019709F4CEC04BC18330910509F42FC160
:100B3000049709F437C143C185E290E0FC011082BB
:100B40008091370190913801892B69F480913701A8
:100B500090913801019690933801809337018FEF7F
:100B60008093190194C080913701909138010197C9
:100B700091F480913701909138010196909338015A
:100B80008093370180911201809339018091130184
:100B9000809319017CC080913701909138010297B0
:100BA00069F4809137019091380101969093380152
:100BB000809337018FEF8093190169C080913701CD
:100BC00090913801039791F4809137019091380109
:100BD000019690933801809337018091140180939E
:100BE0003901809115018093190151C0809137011D
:100BF00090913801049769F4809137019091380100
:100C0000019690933801809337018FEF80931901FB
:100C10003EC08091370190913801059771F4809121
:100C200037019091380101969093380180933701F4
:100C300080911601809319012AC08091370190910B
:100C40003801069769F48091370190913801019637
:100C500090933801809337018FEF8093190117C06B
:100C60008091370190913801079769F4109238010B
:100C700010923701809117018093390180911801FA
:100C80008093190104C010923801109237018091AD
:100C90002F01882341F081E090E09A8389831092AC
:100CA00038011092370180913001882309F48AC0FD
:100CB00082E090E09A838983109238011092370184
:100CC00081C080913701909138010196909338014D
:100CD000809337018FEF8093390180EE8093190163
:100CE00080913701909138018C3D954008F46CC09B
:100CF0001A8219821092380110923701109239012C
:100D00008FEF8093190110922F015EC080913701FF
:100D100090913801019690933801809337018FEFBD
:100D2000809339018BEF8093190180913701909165
:100D300038018C3D954068F01A8219821092380172
:100D400010923701109239018FEF809319011092A0
:100D5000300180913701909138018C3D954048F4E5
:100D600085E290E025E230E0F90120812160FC017C
:100D7000208380913001882349F185E290E025E2CB
:100D800030E0F90120812860FC0120831FC080E24F
:100D900090E0FC0180818F3FD9F484E090E09A8359
:100DA000898316C080E290E0FC018081882F90E06A
:100DB00081709927892B71F41A8219820BC01A82CB
:100DC000198209C0000007C0000005C0000003C070
:100DD000000001C0000088E290E020913901FC0190
:100DE0002083809119010E944B0589819A810F907F
:100DF0000F90DF91CF910895CF93DF9300D0CDB7BF
:100E0000DEB79A83898389819A81092E000CAA0B07
:100E1000BB0B40E050E027E030E0841B950B281727
:100E2000390708F4E3C18A5B9F4FFC010C94650D00
:100E300080913601882F90E082709927892B09F4E0
:100E4000D8C181E090E09A838983D3C18091170152
:100E5000813041F482E090E09A83898382E080933C
:100E60001701CEC180911701869580931701C8C1E3
:100E700080911701803841F481E090E09A83898362
:100E800080E48093170105C080911701880F80933B
:100E9000170180911701803851F4909118018091C9
:100EA0001601981721F484E090E09A838983809159
:100EB0001701803809F09FC19091180180911501A8
:100EC000981709F498C1909118018091160198170C
:100ED00009F491C181E0809330018DC180911801A6
:100EE0008F3EA1F480911701813081F487E090E07A
:100EF0009A83898380911801869580688093180170
:100F000080911701880F809317017AC18091180191
:100F10008F3E81F485E090E09A8389838091180167
:100F2000869580688093180180911701869580933B
:100F3000170166C180911701813099F486E090E035
:100F40009A83898380911801882F90E0880F991FD8
:100F500081608093180180911701880F8093170199
:100F60004FC180911801882F90E0880F991F8160F0
:100F7000809318018091170186958093170140C1D5
:100F8000809118018E3FB9F480911701813099F456
:100F900086E090E09A83898380911801882F90E001
:100FA000880F991F81608093180180911701880F25
:100FB0008093170125C1809118018E3F99F484E038
:100FC00090E09A83898380911801882F90E0880FA0
:100FD000991F8160809318018091170186958093F5
:100FE00017010EC180911701813081F487E090E0F4
:100FF0009A8389838091180186958068809318016F
:1010000080911701880F80931701FAC08091180111
:10101000869580688093180180911701869580934A
:101020001701EEC0809118018F3EA1F48091170145
:10103000803881F485E090E09A838983809118015B
:10104000869580688093180180911701869580931A
:10105000170149C0809118018F3E81F487E090E02C
:101060009A838983809118018695806880931801FE
:1010700080911701880F8093170135C08091170167
:10108000803819F59091180180911501981799F001
:1010900084E090E09A83898380911801882F90E002
:1010A000880F991F816080931801809117018695A0
:1010B0008093170118C081E090E09A838983809122
:1010C00017018695809317010EC080911801882F13
:1010D00090E0880F991F816080931801809117011B
:1010E000880F8093170180911701803809F085C01F
:1010F0009091180180911501981709F47EC0909184
:10110000180180911601981709F477C081E0809347
:10111000300173C0809118018E3F71F480911701E6
:10112000803851F484E090E09A838983809117019C
:1011300086958093170146C0809118018E3F99F4DF
:1011400086E090E09A83898380911801882F90E04F
:10115000880F991F81608093180180911701880F73
:10116000809317012FC080911701803801F590916D
:10117000180180911501981781F085E090E09A831D
:1011800089838091180186958068809318018091E9
:10119000170186958093170115C081E090E09A832E
:1011A0008983809117018695809317010BC08091E8
:1011B0001801869580688093180180911701880F27
:1011C00080931701809117018038C9F4909118011C
:1011D00080911501981799F090911801809116014E
:1011E000981769F081E08093300109C01A82198252
:1011F00007C0000005C0000003C0000001C00000DF
:1012000080912F01882341F01A82198280E4809313
:1012100017018BEF8093180180913001882341F0F2
:101220001A82198280E4809317018BEF8093180152
:1012300080913601882F90E081709927892B41F0A9
:101240001A82198280E4809317018BEF8093180132
:1012500089819A810F900F90DF91CF910895CF935C
:10126000DF9300D0CDB7DEB79A83898389819A81D5
:10127000009719F0019789F026C080EE8093130142
:1012800080913601882F90E082709927892BF1F0A8
:1012900081E090E09A83898319C0809117018130A1
:1012A000B9F480911801809590911301892B809356
:1012B0001301809113018F3F59F481E080932F0136
:1012C0001A82198205C01A82198203C0000001C067
:1012D000000080913001882311F01A8219828091D8
:1012E0003601882F90E081709927892B11F01A829E
:1012F000198289819A810F900F90DF91CF91089583
:10130000CF93DF9300D0CDB7DEB79A8389838981ED
:101310009A818130910511F1823091051CF4892B5D
:1013200049F086C08230910509F45EC0039709F444
:101330006DC07EC08BEF8093150187EF80931601FF
:1013400080913601882F90E082709927892B09F4CB
:1013500072C081E090E09A8389836DC080913601EC
:10136000882F90E084709927892BA9F0809115012E
:101370008E3F89F0809115018695806880931501D4
:1013800080911601869580688093160182E090E036
:101390009A83898328C080913601882F90E08870D5
:1013A0009927892BD9F0809116018F3EB9F0809151
:1013B0001501882F90E0880F991F81608093150197
:1013C00080911601882F90E0880F991F816080938B
:1013D000160183E090E09A83898305C081E090E064
:1013E0009A83898329C028C080913601882F90E094
:1013F00084709927892B29F082E090E09A83898371
:101400001BC081E090E09A83898316C080913601E9
:10141000882F90E088709927892B29F083E090E04D
:101420009A83898309C081E090E09A83898304C00C
:101430001A82198201C0000080912F01882311F0C7
:101440001A82198280913001882311F01A82198240
:1014500080913601882F90E081709927892B11F0B7
:101460001A82198289819A810F900F90DF91CF9112
:101470000895CF93DF93CDB7DEB760970FB6F8949A
:10148000DEBF0FBECDBF988B8F8788E790E0FC0151
:101490008081918190933301809332018091320158
:1014A000909133018D3B924020F082E08093360191
:1014B0000AC080913201909133018C32914018F42E
:1014C00081E0809336018CE790E02CE730E0F90171
:1014D00020812160FC01208380E090E0A0E8BFE350
:1014E00089839A83AB83BC8320E030E04AEF54E4E5
:1014F00069817A818B819C810E94F40DDC01CB0192
:101500008D839E83AF83B88720E030E040E85FE3BF
:101510006D817E818F8198850E946E0D88232CF4C9
:1015200081E090E09A8789873FC020E03FEF4FE756
:1015300057E46D817E818F8198850E94EF0D18168A
:101540004CF520E030E040E251E469817A818B8102
:101550009C810E94F40DDC01CB01BC01CD010E94F5
:10156000730DDC01CB019A8789870FC088EC90E06E
:101570009C878B878B859C850197F1F79C878B8750
:1015800089859A8501979A87898789859A85892B84
:1015900069F714C06D817E818F8198850E94730DDB
:1015A000DC01CB019A87898789859A859E878D87FB
:1015B0008D859E850197F1F79E878D8788E790E05E
:1015C000FC01808191819093350180933401809159
:1015D0003401909135018D3B924030F0809136017D
:1015E0008460809336010CC0809134019091350164
:1015F0008C32914028F480913601886080933601C6
:1016000080913201909133018C3B9240B8F48091EB
:101610003201909133018D32914080F080913401FC
:10162000909135018C3B924048F480913401909127
:1016300035018D32914010F0109236018CE790E028
:101640002CE730E0F90120812E7FFC0120838F857B
:10165000988960960FB6F894DEBF0FBECDBFDF91BC
:10166000CF910895CF93DF93CDB7DEB78AE790E0AF
:101670002AE730E0F9012081206EFC012083000080
:10168000DF91CF9108950F931F93CF93DF93CDB741
:10169000DEB765970FB6F894DEBF0FBECDBF81E20F
:1016A00090E0FC01108282E290E02FEFFC012083A9
:1016B00084E290E02FEFFC01208385E290E0FC01C2
:1016C000108287E290E02FEFFC01208388E290E017
:1016D000FC0110828AE290E027E0FC0120838BE28B
:1016E00090E028EFFC0120830E94320B8AE0E0E2C8
:1016F000F1E0DE011C9601900D928A95E1F785E0FC
:1017000090E09A8789878FEF8B878B8580933A014A
:1017100081E090E0A0E0B0E080933B0190933C0139
:10172000A0933D01B0933E0180913B0190913C011B
:10173000A0913D01B0913E0180933F019093400103
:10174000A0934101B09342018EE795E0909344014C
:10175000809343018B858093450180E991E0A0E06F
:10176000B0E08093460190934701A0934801B09365
:1017700049018091460190914701A0914801B091A3
:10178000490180934A0190934B01A0934C01B0937F
:101790004D018CEF96E090934F0180934E018B8525
:1017A0008093500188EC90E0A0E0B0E0809351017C
:1017B00090935201A0935301B09354018091510131
:1017C00090915201A0915301B09154018093550121
:1017D00090935601A0935701B09358018FE299E07E
:1017E00090935A01809359018B8580935B0182E32A
:1017F00090E0A0E0B0E080935C0190935D01A09345
:101800005E01B0935F0180915C0190915D01A091B8
:101810005E01B0915F018093600190936101A0939C
:101820006201B093630180E899E090936501809331
:1018300064018B858093660184E190E0A0E0B0E0D4
:101840008093670190936801A0936901B0936A0146
:101850008091670190916801A0916901B0916A013E
:1018600080936B0190936C01A0936D01B0936E0116
:1018700089E39AE09093700180936F018C859D8538
:10188000FC0181819281A381B48189839A83AB8396
:10189000BC8381E090E09E838D8325C08D819E81F5
:1018A000880F991F9E012F5F3F4F820F931F0B964A
:1018B000FC0180819181FC0121813281438154812D
:1018C00089819A81AB81BC81BC01CD010E94D60285
:1018D000DC01CB0189839A83AB83BC838D819E819C
:1018E00001969E838D832D813E8189859A85281757
:1018F0003907A0F289819A81AB81BC81BC01CD01FD
:101900000E9408040E94360418861F82A0C08F819E
:101910009885880F991F9E012F5F3F4F820F931F5D
:101920000B96FC0180819181FC01258136814781E4
:1019300050858F819885880F991FBE016F5F7F4FFB
:10194000860F971F0B96FC0180819181FC0181819C
:101950009281A381B481281739074A075B0708F4ED
:1019600045C08F819885880F991F9E012F5F3F4F3B
:10197000820F931F0B96FC01008111818F81988546
:10198000880F991F9E012F5F3F4F820F931F0B9669
:10199000FC0180819181FC01218532858F819885B0
:1019A000880F991FAE014F5F5F4F840F951F0B96F5
:1019B000FC0180819181FC018081082E000C990B33
:1019C000F9010995F80180838F819885880F991F07
:1019D0009E012F5F3F4F820F931F0B96FC0180816A
:1019E0009181FC0115821682178210868F8198855D
:1019F000880F991F9E012F5F3F4F820F931F0B96F9
:101A0000FC01608171818F819885880F991F9E01EB
:101A10002F5F3F4F820F931F0B96FC0180819181B6
:101A2000FC01258136814781508589819A81AB816E
:101A3000BC81820F931FA41FB51FFB018583968372
:101A4000A783B0878F819885019698878F832F8190
:101A5000388589859A852817390708F458CF0000FA
:101A600080912A018823E1F310922A014DCF991B1E
:101A700079E004C0991F961708F0961B881F7A9585
:101A8000C9F780950895A1E21A2EAA1BBB1BFD0180
:101A90000DC0AA1FBB1FEE1FFF1FA217B307E4074D
:101AA000F50720F0A21BB30BE40BF50B661F771FA5
:101AB000881F991F1A9469F7609570958095909585
:101AC0009B01AC01BD01CF010895EE0FFF1F002463
:101AD000001C0BBE0790F691E02D09940E94A20D08
:101AE00008F481E008950E94CE0D88F09F5798F089
:101AF000B92F9927B751B0F0E1F0660F771F881F13
:101B0000991F1AF0BA95C9F714C0B13091F00E942C
:101B1000E80DB1E008950C94E80D672F782F882721
:101B2000B85F39F0B93FCCF3869577956795B39553
:101B3000D9F73EF490958095709561957F4F8F4FC2
:101B40009F4F0895990F0008550FAA0BE0E8FEEF8C
:101B500016161706E807F907C0F012161306E40771
:101B6000F50798F0621B730B840B950B39F40A266A
:101B700061F0232B242B252B21F408950A2609F448
:101B8000A140A6958FEF811D811D089557FD9058A6
:101B9000440F551F59F05F3F71F04795880F97FB31
:101BA000991F61F09F3F79F08795089512161306EB
:101BB0001406551FF2CF4695F1DF08C0161617061A
:101BC0001806991FF1CF869571056105089408954F
:101BD000E894BB2766277727CB0197F908950E94E1
:101BE000A20D08F48FEF08950E94070E0C94780E52
:101BF0000E946A0E38F00E94710E20F0952311F0B9
:101C00000C94610E0C94670E11240C94E90D0E9443
:101C1000C60D70F3959FC1F3950F50E0551F629F5D
:101C2000F001729FBB27F00DB11D639FAA27F00D35
:101C3000B11DAA1F649F6627B00DA11D661F829F5C
:101C40002227B00DA11D621F739FB00DA11D621F41
:101C5000839FA00D611D221F749F3327A00D611D5E
:101C6000231F849F600D211D822F762F6A2F112440
:101C70009F5750409AF0F1F088234AF0EE0FFF1F73
:101C8000BB1F661F771F881F91505040A9F79E3FCA
:101C9000510580F00C94610E0C94E90D5F3FE4F364
:101CA000983ED4F3869577956795B795F795E79520
:101CB0009F5FC1F7FE2B880F911D9695879597F929
:101CC000089597F99F6780E870E060E008959FEFBE
:101CD00080EC089500240A941616170618060906C3
:101CE000089500240A941216130614060506089592
:101CF000092E0394000C11F4882352F0BB0F40F41A
:101D0000BF2B11F460FF04C06F5F7F4F8F4F9F4F59
:101D100008950F931F93CF93DF938230910510F4B2
:101D200082E090E0E0917301F091740120E030E0F6
:101D3000A0E0B0E0309719F1408151810281138118
:101D400048175907C8F08417950769F4109731F0C0
:101D500012960C93129713961C9327C0009373014D
:101D60001093740122C02115310519F04217530751
:101D700018F49A01BD01EF01DF01F801DBCF211555
:101D80003105F9F0281B390B2430310580F48A81A4
:101D90009B816115710521F0FB019383828304C04F
:101DA0009093740180937301FE01329644C0FE014A
:101DB000E20FF31F819391932250310939832883D5
:101DC0003AC02091710130917201232B41F420918E
:101DD0001C0130911D0130937201209371012091FB
:101DE0001A0130911B012115310541F42DB73EB781
:101DF00040911E0150911F01241B350BE091710190
:101E0000F0917201E217F307A0F42E1B3F0B281785
:101E1000390778F0AC014E5F5F4F2417350748F063
:101E20004E0F5F1F50937201409371018193919304
:101E300002C0E0E0F0E0CF01DF91CF911F910F9160
:101E40000895CF93DF93009709F481C0FC01329786
:101E500013821282A0917301B0917401109781F4E2
:101E600020813181820F931F209171013091720185
:101E70002817390751F5F0937201E093710167C09B
:101E8000ED0120E030E0CE17DF0740F44A815B81AE
:101E90009E0141155105F1F0EA01F5CFD383C283CC
:101EA00040815181840F951FC817D90759F4888143
:101EB0009981840F951F0296918380838A819B81EB
:101EC000938382832115310529F4F0937401E09303
:101ED00073013DC0E901FB83EA8349915991C40F25
:101EE000D51FEC17FD0761F480819181840F951F48
:101EF0000296E90199838883828193819B838A83F7
:101F0000E0E0F0E012968D919C911397009719F004
:101F1000FD01DC01F7CF8D919C9111979D012E5F02
:101F20003F4F820F931F209171013091720128174A
:101F3000390769F4309729F41092740110927301F3
:101F400002C013821282B0937201A0937101DF91DB
:081F5000CF910895F894FFCF32
:101F5800010000000000000200000000E60400008C
:101F6800000001E080FBF740FBFF00007501200046
:0A1F78003A01450150015B016601CA
:00000001FF
