:100000000C944E000C946D000C946D000C946D00DB
:100010000C946D000C946D000C946D000C946D00AC
:100020000C946D000C946D000C946D000C946D009C
:100030000C946D000C9484040C946D000C946D0071
:100040000C946D000C946D000C946D000C946D007C
:100050000C946D000C946D000C946D000C946D006C
:100060000C946D000C946D000C946D000C946D005C
:100070000C946D000C946D000C946D000C946D004C
:100080000C946D000C946D000C946D00C106D106AB
:10009000F006AF081D077C07DB074A0811241FBEC6
:1000A000CFEFD0E4DEBFCDBF11E0A0E0B1E0EAEFDA
:1000B000F9E100E00BBF02C007900D92A832B10732
:1000C000D9F721E0A8E2B1E001C01D92A336B20742
:1000D000E1F70E94DF090C94FB0C0C940000CF9315
:1000E000DF9300D01F92CDB7DEB789836A834B833D
:1000F0008B81882371F08A81282F30E081E090E0A5
:1001000002C0880F991F2A95E2F7982F8981892BC1
:100110000EC08A81282F30E081E090E002C0880F75
:10012000991F2A95E2F7982F9095898189230F903E
:100130000F900F90DF91CF910895CF93DF9300D070
:10014000CDB7DEB789836A838A81282F30E081E0CA
:1001500090E002C0880F991F2A95E2F7982F8981B5
:1001600089230F900F90DF91CF910895CF93DF9364
:10017000CDB7DEB781E00E94DD000000DF91CF91B6
:100180000895CF93DF93CDB7DEB784E690E00E9469
:10019000810188E30E94DD0086E00E94DD008FE09F
:1001A0000E94DD0081E00E94DD008AE090E00E9474
:1001B00081010000DF91CF910895CF93DF931F92CB
:1001C000CDB7DEB789838BE290E02BE230E0F90116
:1001D00020812F7BFC01208382E290E02981FC01B9
:1001E00020838BE290E02BE230E0F901208120684F
:1001F000FC01208300008BE290E02BE230E0F9016B
:1002000020812F77FC01208382E090E00E94810111
:1002100000000F90DF91CF910895CF93DF931F924D
:10022000CDB7DEB789838BE290E02BE230E0F901B5
:1002300020812064FC01208382E290E02981FC017E
:1002400020838BE290E02BE230E0F90120812068EE
:10025000FC01208300008BE290E02BE230E0F9010A
:1002600020812F77FC01208381E090E00E948101B2
:1002700000000F90DF91CF910895CF93DF9300D0CE
:1002800000D0CDB7DEB78A837C836B830E94B60033
:100290008A81898311C0898191E0980F99830E9496
:1002A0006A018B819C819C012F5F3F4F3C832B8394
:1002B000FC0180810E940D018B819C81FC01808169
:1002C000882349F700000F900F900F900F90DF9157
:1002D000CF910895CF93DF931F92CDB7DEB7898377
:1002E0008981813128F4898181580E94DD0004C010
:1002F000898181550E94DD0000000F90DF91CF9130
:100300000895CF93DF9300D000D000D0CDB7DEB7F3
:100310009E838D831A82198213C01C821B8206C0A1
:1003200000008B819C8101969C838B838B819C81B7
:1003300087309340ACF389819A8101969A838983AF
:1003400029813A818D819E812817390734F3000075
:1003500026960FB6F894DEBF0FBECDBFDF91CF91CA
:100360000895CF93DF9300D01F92CDB7DEB78B8374
:1003700086E090E00E94DA0B9A8389838B81882F34
:1003800090E00E94DA0B9C0189819A81FC01318303
:10039000208389819A81FC01128289819A81FC01E2
:1003A000138289819A81FC01148289819A812B812F
:1003B000FC01258389819A810F900F900F90DF9126
:1003C000CF910895CF93DF9300D0CDB7DEB79A8356
:1003D000898389819A81FC01948181E0992309F0C4
:1003E00080E00F900F90DF91CF910895CF93DF932E
:1003F00000D0CDB7DEB79A83898389819A81FC01C9
:10040000248189819A81FC01958181E0291709F075
:1004100080E00F900F90DF91CF910895CF93DF93FD
:1004200000D0CDB7DEB79A83898389819A81FC0198
:10043000128289819A81FC01138289819A81FC014F
:10044000148200000F900F90DF91CF910895CF9309
:10045000DF9300D01F92CDB7DEB79A8389836B8379
:1004600089819A81FC01248189819A81FC0185819D
:100470002817C0F589819A81FC0120813181898109
:100480009A81FC018381882F90E0820F931F2B813A
:10049000FC01208389819A81FC01838121E0280F5E
:1004A00089819A81FC01238389819A81FC012381BE
:1004B00089819A81FC019581822F692F0E94A30B6B
:1004C000892F282F89819A81FC01238389819A8130
:1004D000FC01848121E0280F89819A81FC01248319
:1004E00080E001C081E00F900F900F90DF91CF91DD
:1004F0000895CF93DF9300D01F92CDB7DEB79B83D3
:100500008A838A819B81FC018481882309F447C006
:100510008A819B81FC01208131818A819B81FC0140
:100520008281882F90E0820F931FFC018081898354
:100530008A819B81FC01208131818A819B81FC0120
:100540008281882F90E0820F931FFC0110828A81A4
:100550009B81FC01828121E0280F8A819B81FC0123
:1005600022838A819B81FC0122818A819B81FC01FB
:100570009581822F692F0E94A30B892F282F8A81B2
:100580009B81FC0122838A819B81FC0184812FEF66
:10059000280F8A819B81FC012483898101C080E02E
:1005A0000F900F900F90DF91CF910895CF93DF932D
:1005B000CDB7DEB72C970FB6F894DEBF0FBECDBF18
:1005C0006D837E838F83988729873A874B875C87E3
:1005D0008D819E81AF81B88529853A854B855C8563
:1005E000BC01CD010E94AF0BDC01CB0189839A8352
:1005F000AB83BC8389819A81AB81BC81892B8A2B97
:100600008B2B29F489859A85AB85BC8511C089859A
:100610009A85AB85BC858D839E83AF83B88789819E
:100620009A81AB81BC8189879A87AB87BC87D0CF01
:10063000BC01CD012C960FB6F894DEBF0FBECDBF26
:10064000DF91CF910895CF93DF9300D01F92CDB764
:10065000DEB78B8385E090E00E94DA0B9A83898372
:100660008B81882F90E00E94DA0B9C0189819A810E
:10067000FC013183208389819A81FC011282898166
:100680009A81FC01138289819A812B81FC01248348
:1006900089819A810F900F900F90DF91CF910895EB
:1006A000CF93DF9300D0CDB7DEB79A83898389815A
:1006B0009A81FC01938181E0992309F080E00F90F9
:1006C0000F90DF91CF910895CF93DF9300D0CDB7F6
:1006D000DEB79A83898389819A81FC01238189818C
:1006E0009A81FC01948181E0291709F080E00F9044
:1006F0000F90DF91CF910895CF93DF9300D0CDB7C6
:10070000DEB79A83898389819A81FC01128289816B
:100710009A81FC01138200000F900F90DF91CF911E
:100720000895CF93DF9300D01F92CDB7DEB79A83A1
:1007300089836B8389819A81FC01238189819A81D4
:10074000FC018481281730F589819A81FC01208180
:10075000318189819A81FC018281882F90E0820F0A
:10076000931F2B81FC01208389819A81FC01838165
:1007700021E0280F89819A81FC01238389819A8154
:10078000FC01828121E0280F89819A81FC0122836A
:1007900080E001C081E00F900F900F90DF91CF912A
:1007A0000895CF93DF9300D0CDB7DEB79A838983C6
:1007B00089819A81FC018381882321F189819A8131
:1007C000FC0183812FEF280F89819A81FC0123830B
:1007D00089819A81FC0182812FEF280F89819A817A
:1007E000FC01228389819A81FC01208131818981E8
:1007F0009A81FC018281882F90E0820F931FFC0177
:10080000808101C080E00F900F90DF91CF9108951B
:10081000CF93DF9300D000D0CDB7DEB769837A8362
:100820008B839C8389819A81AB81BC8180930001F9
:1008300090930101A0930201B09303018091000104
:1008400090910101A0910201B091030180932901CF
:1008500090932A01A0932B01B0932C0100000F90DC
:100860000F900F900F90DF91CF910895CF93DF936A
:10087000CDB7DEB781E890E02BE0FC01208388E86B
:1008800090E02DE730E0FC01318320838FE690E09B
:1008900022E0FC01208384E890E0FC0111821082B8
:1008A0008091000190910101A0910201B09103019A
:1008B0008093290190932A01A0932B01B0932C01DE
:1008C0008FE590E02FE530E0F90120812068FC0100
:1008D00020830000DF91CF910895CF93DF93CDB7B0
:1008E000DEB781E890E0FC0110820000DF91CF913B
:1008F0000895CF93DF93CDB7DEB781E080932801D1
:100900000000DF91CF9108951F920F9200905F0039
:100910000F92112400905B000F922F933F934F93FF
:100920005F936F937F938F939F93AF93BF93EF9357
:10093000FF93CF93DF93CDB7DEB7809129019091DC
:100940002A01A0912B01B0912C010197A109B109B5
:100950008093290190932A01A0932B01B0932C013D
:100960008091290190912A01A0912B01B0912C0135
:10097000892B8A2B8B2B91F40E94790480910001A2
:1009800090910101A0910201B0910301809329018E
:1009900090932A01A0932B01B0932C010000DF91CA
:1009A000CF91FF91EF91BF91AF919F918F917F91E7
:1009B0006F915F914F913F912F910F9000925B004B
:1009C0000F9000925F000F901F901895CF93DF93C8
:1009D00000D01F92CDB7DEB789837B836A8389817C
:1009E0008A3031F48A819B81BC018DE00E94E6044B
:1009F00080EC90E0FC018081882F90E08072992744
:100A0000892BB1F386EC90E02981FC01208380E002
:100A100090E00F900F900F90DF91CF910895CF93BA
:100A2000DF93CDB7DEB78BE290E02BE230E0F90147
:100A300020812260FC0120838BE290E02BE230E0F9
:100A4000F90120812D7FFC0120830000DF91CF91EF
:100A50000895CF93DF93CDB7DEB78BE290E02BE222
:100A600030E0F90120812160FC0120830000DF914A
:100A7000CF910895CF93DF93CDB7DEB78BE290E0AF
:100A80002BE230E0F90120812E7FFC012083000061
:100A9000DF91CF910895CF93DF9300D0CDB7DEB72C
:100AA0008A838BE290E02BE230E0F90120812B7FFA
:100AB000FC012083198210C08A8188231CF40E94C3
:100AC000290502C00E943A058A81880F8A830E9404
:100AD0000F0589818F5F89838981883068F38BE274
:100AE00090E02BE230E0F90120812460FC012083BA
:100AF00000000F900F90DF91CF910895CF93DF9377
:100B000000D0CDB7DEB79A83898389819A818130FD
:100B1000910509F4C3C0823091051CF4892B49F07A
:100B2000F9C08230910509F4DDC0039709F4E5C0EE
:100B3000F1C08091300190913101892B69F480914D
:100B400030019091310101969093310180933001F1
:100B50008FEF8093190194C0809130019091310101
:100B6000019791F480913001909131010196909319
:100B70003101809330018091120180933201809184
:100B80001301809319017CC0809130019091310153
:100B9000029769F480913001909131010196909310
:100BA0003101809330018FEF8093190169C08091EA
:100BB000300190913101039791F48091300190912F
:100BC000310101969093310180933001809114019D
:100BD00080933201809115018093190151C0809159
:100BE000300190913101049769F480913001909126
:100BF0003101019690933101809330018FEF809302
:100C000019013EC08091300190913101059771F436
:100C10008091300190913101019690933101809340
:100C2000300180911601809319012AC08091300112
:100C300090913101069769F48091300190913101D2
:100C4000019690933101809330018FEF80931901C9
:100C500017C08091300190913101079769F410928B
:100C600031011092300180911701809332018091FF
:100C700018018093190104C01092310110923001C3
:100C800080912D01882309F448C081E090E09A8387
:100C9000898310923101109230013FC08091300160
:100CA00090913101019690933101809330018FEF43
:100CB0008093320180EE80931901809130019091F0
:100CC0003101883E934058F11A8219821092310105
:100CD00010923001109232018FEF8093190110921F
:100CE0002D011DC080E290E0FC0180818F3FC9F49E
:100CF00083E090E09A83898314C080E290E0FC0155
:100D00008081882F90E081709927892B61F41A8265
:100D1000198209C01A82198207C0000005C00000AC
:100D200003C0000001C0000088E290E02091320181
:100D3000FC012083809119010E944B0589819A81D1
:100D40000F900F90DF91CF910895CF93DF9300D054
:100D5000CDB7DEB79A83898389819A81092E000CE9
:100D6000AA0BBB0B40E050E027E030E0841B950B62
:100D70002817390708F4F3C18A5B9F4FFC010C94D4
:100D8000D10B80E290E0FC018081882F90E081709F
:100D90009927892B09F0E6C181E090E09A83898345
:100DA000E1C180911701813041F482E090E09A83A3
:100DB000898382E08093170105C080911701869591
:100DC0008093170180912D01882309F4CDC11A82E7
:100DD000198280E4809317018BEF80931801C4C1BE
:100DE00080911701803841F481E090E09A838983F3
:100DF00080E48093170105C080911701880F8093CC
:100E0000170180911701803851F490911801809159
:100E10001601981721F484E090E09A8389838091E9
:100E20002D01882309F4A2C11A82198280E48093DB
:100E300017018BEF8093180199C1809118018F3EA3
:100E4000A1F480911701813081F487E090E09A83CA
:100E5000898380911801869580688093180180911C
:100E60001701880F8093170139C0809118018F3EB8
:100E700081F485E090E09A838983809118018695BA
:100E800080688093180180911701869580931701DF
:100E900025C080911701813099F486E090E09A8313
:100EA000898380911801882F90E0880F991F8160B5
:100EB0008093180180911701880F809317010EC04D
:100EC00080911801882F90E0880F991F816080938E
:100ED00018018091170186958093170180912D014B
:100EE000882309F445C11A82198280E4809317018E
:100EF0008BEF809318013CC1809118018E3FB9F4AB
:100F000080911701813099F486E090E09A8389837B
:100F100080911801882F90E0880F991F816080933D
:100F2000180180911701880F8093170136C08091B6
:100F300018018E3F99F484E090E09A838983809130
:100F40001801882F90E0880F991F81608093180105
:100F5000809117018695809317011FC0809117011A
:100F6000813081F487E090E09A8389838091180131
:100F7000869580688093180180911701880F80936F
:100F800017010BC080911801869580688093180125
:100F90008091170186958093170180912D018823F8
:100FA00009F4E8C01A82198280E4809317018BEF5C
:100FB00080931801DFC0809118018F3EA1F48091C9
:100FC0001701803881F485E090E09A8389838091CD
:100FD0001801869580688093180180911701869585
:100FE0008093170149C0809118018F3E81F487E0FA
:100FF00090E09A8389838091180186958068809318
:10100000180180911701880F8093170135C08091D6
:101010001701803819F590911801809115019817E2
:1010200099F084E090E09A83898380911801882F59
:1010300090E0880F991F81608093180180911701BB
:1010400086958093170118C081E090E09A83898388
:10105000809117018695809317010EC08091180129
:10106000882F90E0880F991F8160809318018091EC
:101070001701880F8093170180912D01882309F4AF
:101080007BC01A82198280E4809317018BEF8093D2
:10109000180172C0809118018E3F71F48091170180
:1010A000803851F484E090E09A838983809117011D
:1010B00086958093170146C0809118018E3F99F460
:1010C00086E090E09A83898380911801882F90E0D0
:1010D000880F991F81608093180180911701880FF4
:1010E000809317012FC080911701803801F59091EE
:1010F000180180911501981781F085E090E09A839E
:101100008983809118018695806880931801809169
:10111000170186958093170115C081E090E09A83AE
:101120008983809117018695809317010BC0809168
:101130001801869580688093180180911701880FA7
:101140008093170180912D018823C1F01A821982A2
:1011500080E4809317018BEF809318010FC01A82EF
:1011600019820DC000000BC0000009C0000007C0BC
:10117000000005C0000003C0000001C0000089811C
:101180009A810F900F90DF91CF910895CF93DF93C5
:1011900000D0CDB7DEB79A83898389819A81009781
:1011A00019F0019769F027C080912D01882319F06B
:1011B00080EE8093130181E090E09A8389831FC0C1
:1011C000809117018130D1F4809118018095909120
:1011D0001301892B8093130180912F018F5F8093DE
:1011E0002F01809113018F3F49F481E080932D01FD
:1011F0001A82198203C01A82198201C000008981F3
:101200009A810F900F90DF91CF910895CF93DF9344
:1012100000D0CDB7DEB79A83898389819A818230E5
:10122000910509F456C0833091052CF4009759F0CC
:10123000019771F0B7C08330910509F48BC0049712
:1012400009F49CC0AFC081E090E09A838983B0C06C
:1012500080E290E0FC018081882F90E081709927E6
:10126000892BA9F4809115018E3F89F08091150199
:101270008695806880931501809116018695806817
:101280008093160183E090E09A8389838EC080E288
:1012900090E0FC018081882F90E081709927892B54
:1012A00009F083C080911501882F90E0880F991F65
:1012B00081608093150180911601882F90E0880F3E
:1012C000991F81608093160182E090E09A83898360
:1012D0006CC080E290E0FC018081882F90E08170FA
:1012E0009927892BD9F4809116018F3EB9F080910E
:1012F0001501882F90E0880F991F81608093150158
:1013000080911601882F90E0880F991F816080934B
:10131000160184E090E09A83898349C080E290E0DE
:10132000FC018081882F90E081709927892B09F03A
:101330003EC080911501869580688093150180914B
:101340001601869580688093160181E090E09A836B
:1013500089832DC080E290E0FC018081882F90E09D
:1013600081709927892B29F483E090E09A838983FF
:101370001FC081E090E09A8389831AC080E290E0E8
:10138000FC018081882F90E081709927892B29F4B6
:1013900084E090E09A8389830BC082E090E09A8396
:1013A000898306C01A82198203C0000001C00000B0
:1013B00089819A810F900F90DF91CF9108950F93BB
:1013C0001F93CF93DF93CDB7DEB763970FB6F89433
:1013D000DEBF0FBECDBF81E290E0FC01108282E251
:1013E00090E02FEFFC01208387E290E02FEFFC01DB
:1013F000208388E290E0FC0110828AE290E027E0FE
:10140000FC0120838BE290E028EFFC01208388E040
:10141000E0E2F1E0DE011C9601900D928A95E1F781
:1014200084E090E09A8789878FEF8B878B85809304
:10143000330181E090E0A0E0B0E08093340190932C
:101440003501A0933601B09337018091340190911A
:101450003501A0913601B091370180933801909306
:101460003901A0933A01B0933B018EE795E0909348
:101470003D0180933C018B8580933E0184EF91E098
:10148000A0E0B0E080933F0190934001A093410120
:10149000B093420180913F0190914001A0914101A0
:1014A000B09142018093430190934401A093450180
:1014B000B093460185EA96E09093480180934701F6
:1014C0008B85809349018CE291E0A0E0B0E08093AD
:1014D0004A0190934B01A0934C01B0934D01809130
:1014E0004A0190914B01A0914C01B0914D01809324
:1014F0004E0190934F01A0935001B093510186EC9F
:1015000098E090935301809352018B85809354010E
:1015100082E390E0A0E0B0E0809355019093560103
:10152000A0935701B09358018091550190915601B5
:10153000A0915701B09158018093590190935A019D
:10154000A0935B01B0935C0186E099E090935E010B
:1015500080935D018C859D85FC0181819281A381B1
:10156000B48189839A83AB83BC8381E090E09E83BE
:101570008D8325C08D819E81880F991F9E012F5FCD
:101580003F4F820F931F0B96FC0180819181FC01DC
:10159000218132814381548189819A81AB81BC81CF
:1015A000BC01CD010E94D602DC01CB0189839A8364
:1015B000AB83BC838D819E8101969E838D832D811B
:1015C0003E8189859A8528173907A0F289819A81F9
:1015D000AB81BC81BC01CD010E9408040E9436048D
:1015E00018861F82A0C08F819885880F991F9E0141
:1015F0002F5F3F4F820F931F0B96FC0180819181DB
:10160000FC0125813681478150858F819885880F1F
:10161000991FBE016F5F7F4F860F971F0B96FC01CE
:1016200080819181FC0181819281A381B4812817FD
:1016300039074A075B0708F445C08F819885880FF2
:10164000991F9E012F5F3F4F820F931F0B96FC0146
:10165000008111818F819885880F991F9E012F5FCE
:101660003F4F820F931F0B96FC0180819181FC01FB
:10167000218532858F819885880F991FAE014F5F34
:101680005F4F840F951F0B96FC0180819181FC01B7
:101690008081082E000C990BF9010995F8018083CF
:1016A0008F819885880F991F9E012F5F3F4F820F72
:1016B000931F0B96FC0180819181FC01158216829B
:1016C000178210868F819885880F991F9E012F5F42
:1016D0003F4F820F931F0B96FC01608171818F81B8
:1016E0009885880F991F9E012F5F3F4F820F931F90
:1016F0000B96FC0180819181FC0125813681478117
:10170000508589819A81AB81BC81820F931FA41F70
:10171000B51FFB0185839683A783B0878F8198854A
:10172000019698878F832F81388589859A85281718
:10173000390708F458CF0000809128018823E1F38D
:10174000109228014DCF991B79E004C0991F96177C
:1017500008F0961B881F7A95C9F780950895A1E235
:101760001A2EAA1BBB1BFD010DC0AA1FBB1FEE1F1B
:10177000FF1FA217B307E407F50720F0A21BB30B66
:10178000E40BF50B661F771F881F991F1A9469F7E2
:1017900060957095809590959B01AC01BD01CF013E
:1017A0000895EE0FFF1F0024001C0BBE0790F6915A
:1017B000E02D09940F931F93CF93DF93823091050F
:1017C00010F482E090E0E0916101F091620120E08C
:1017D00030E0A0E0B0E0309719F140815181028102
:1017E000138148175907C8F08417950769F41097B3
:1017F00031F012960C93129713961C9327C0009306
:1018000061011093620122C02115310519F04217C0
:10181000530718F49A01BD01EF01DF01F801DBCF96
:1018200021153105F9F0281B390B2430310580F4DE
:101830008A819B816115710521F0FB01938382836D
:1018400004C09093620180936101FE01329644C00E
:10185000FE01E20FF31F81939193225031093983E6
:1018600028833AC020915F0130916001232B41F41D
:1018700020911C0130911D013093600120935F0184
:1018800020911A0130911B012115310541F42DB72A
:101890003EB740911E0150911F01241B350BE09172
:1018A0005F01F0916001E217F307A0F42E1B3F0BDC
:1018B0002817390778F0AC014E5F5F4F24173507C2
:1018C00048F04E0F5F1F5093600140935F0181937A
:1018D000919302C0E0E0F0E0CF01DF91CF911F9142
:1018E0000F910895CF93DF93009709F481C0FC0115
:1018F000329713821282A0916101B0916201109718
:1019000081F420813181820F931F20915F013091FA
:1019100060012817390751F5F0936001E0935F01EA
:1019200067C0ED0120E030E0CE17DF0740F44A81C8
:101930005B819E0141155105F1F0EA01F5CFD3839A
:10194000C28340815181840F951FC817D90759F46C
:1019500088819981840F951F0296918380838A8163
:101960009B81938382832115310529F4F0936201D1
:10197000E09361013DC0E901FB83EA8349915991FC
:10198000C40FD51FEC17FD0761F480819181840F8E
:10199000951F0296E90199838883828193819B83B5
:1019A0008A83E0E0F0E012968D919C911397009766
:1019B00019F0FD01DC01F7CF8D919C9111979D01EC
:1019C0002E5F3F4F820F931F20915F013091600186
:1019D0002817390769F4309729F4109262011092A0
:1019E000610102C013821282B0936001A0935F0173
:0A19F000DF91CF910895F894FFCF26
:1019FA00010000000000000200000000E6040000F0
:101A0A00000001E080FBF740FBFF000063012000BB
:081A1A0033013E0149015401B2
:00000001FF
