:100000000C945F000C947E000C947E000C947E0097
:100010000C947E000C947E000C947E000C947E0068
:100020000C947E000C947E000C947E000C947E0058
:100030000C947E000C9495040C947E000C947E002D
:100040000C947E000C947E000C947E000C947E0038
:100050000C947E000C947E000C947E000C947E0028
:100060000C947E000C947E000C947E000C947E0018
:100070000C947E000C947E000C947E000C947E0008
:100080000C947E000C947E000C947E00FE081509F2
:1000900027095D09AF09010A790AE80AFA0A300B53
:1000A000820BD40B430C7F0E9B0EBA0E060F250F4E
:1000B000510F5F0F6B0F750F7D0F970FB10F11244D
:1000C0001FBECFEFD0E4DEBFCDBF13E0A0E0B1E0B4
:1000D000E0E0F8E200E00BBF02C007900D92A03D07
:1000E000B107D9F724E0A0EDB3E001C01D92AB3217
:1000F000B207E1F70E948A100C94FE130C940000E2
:10010000CF93DF9300D01F92CDB7DEB789836A8388
:100110004B838B81882371F08A81282F30E081E026
:1001200090E002C0880F991F2A95E2F7982F8981E5
:10013000892B0EC08A81282F30E081E090E002C038
:10014000880F991F2A95E2F7982F90958981892326
:100150000F900F900F90DF91CF910895CF93DF9381
:1001600000D0CDB7DEB789836A838A81282F30E03B
:1001700081E090E002C0880F991F2A95E2F7982F3E
:10018000898189230F900F90DF91CF910895CF93AC
:10019000DF93CDB7DEB781E00E94EE000000DF9173
:1001A000CF910895CF93DF93CDB7DEB784E690E08B
:1001B0000E94920188E30E94EE0086E00E94EE0019
:1001C0008FE00E94EE0081E00E94EE008AE090E065
:1001D0000E9492010000DF91CF910895CF93DF93A9
:1001E0001F92CDB7DEB789838BE290E02BE230E03F
:1001F000F90120812F7BFC01208382E290E029819C
:10020000FC0120838BE290E02BE230E0F9012081B9
:100210002068FC01208300008BE290E02BE230E0BC
:10022000F90120812F77FC01208382E090E00E9479
:10023000920100000F90DF91CF910895CF93DF934B
:100240001F92CDB7DEB789838BE290E02BE230E0DE
:10025000F90120812064FC01208382E290E0298161
:10026000FC0120838BE290E02BE230E0F901208159
:100270002068FC01208300008BE290E02BE230E05C
:10028000F90120812F77FC01208381E090E00E941A
:10029000920100000F90DF91CF910895CF93DF93EB
:1002A00000D000D0CDB7DEB78A837C836B830E94F9
:1002B000C7008A81898311C0898191E0980F998351
:1002C0000E947B018B819C819C012F5F3F4F3C836F
:1002D0002B83FC0180810E941E018B819C81FC018B
:1002E0008081882349F700000F900F900F900F90A6
:1002F000DF91CF910895CF93DF931F92CDB7DEB7F3
:1003000089838981813128F4898181580E94EE0096
:1003100004C0898181550E94EE0000000F90DF919A
:10032000CF910895CF93DF9300D000D000D0CDB708
:10033000DEB79E838D831A82198213C01C821B82B2
:1003400006C000008B819C8101969C838B838B81EE
:100350009C8187309340ACF389819A8101969A837E
:10036000898329813A818D819E812817390734F349
:10037000000026960FB6F894DEBF0FBECDBFDF910A
:10038000CF910895CF93DF9300D01F92CDB7DEB702
:100390008B8386E090E00E94DD129A8389838B81B3
:1003A000882F90E00E94DD129C0189819A81FC01D6
:1003B0003183208389819A81FC01128289819A810B
:1003C000FC01138289819A81FC01148289819A81BE
:1003D0002B81FC01258389819A810F900F900F90CA
:1003E000DF91CF910895CF93DF9300D0CDB7DEB7E3
:1003F0009A83898389819A81FC01948181E0992380
:1004000009F080E00F900F90DF91CF910895CF9386
:10041000DF9300D0CDB7DEB79A83898389819A8133
:10042000FC01248189819A81FC01958181E0291751
:1004300009F080E00F900F90DF91CF910895CF9356
:10044000DF9300D0CDB7DEB79A83898389819A8103
:10045000FC01128289819A81FC01138289819A812F
:10046000FC01148200000F900F90DF91CF9108954E
:10047000CF93DF9300D01F92CDB7DEB79A838983E5
:100480006B8389819A81FC01248189819A81FC0195
:1004900085812817C0F589819A81FC0120813181ED
:1004A00089819A81FC018381882F90E0820F931FBC
:1004B0002B81FC01208389819A81FC01838121E0C9
:1004C000280F89819A81FC01238389819A81FC010B
:1004D000238189819A81FC019581822F692F0E9455
:1004E000A612892F282F89819A81FC012383898173
:1004F0009A81FC01848121E0280F89819A81FC0185
:10050000248380E001C081E00F900F900F90DF9175
:10051000CF910895CF93DF9300D01F92CDB7DEB770
:100520009B838A838A819B81FC018481882309F4CF
:1005300047C08A819B81FC01208131818A819B8116
:10054000FC018281882F90E0820F931FFC01808143
:1005500089838A819B81FC01208131818A819B81F1
:10056000FC018281882F90E0820F931FFC01108292
:100570008A819B81FC01828121E0280F8A819B81F5
:10058000FC0122838A819B81FC0122818A819B81DB
:10059000FC019581822F692F0E94A612892F282F96
:1005A0008A819B81FC0122838A819B81FC01848159
:1005B0002FEF280F8A819B81FC012483898101C050
:1005C00080E00F900F900F90DF91CF910895CF931F
:1005D000DF93CDB7DEB72C970FB6F894DEBF0FBE12
:1005E000CDBF6D837E838F83988729873A874B871A
:1005F0005C878D819E81AF81B88529853A854B8541
:100600005C85BC01CD010E94B212DC01CB01898363
:100610009A83AB83BC8389819A81AB81BC81892B0E
:100620008A2B8B2B29F489859A85AB85BC8511C0D3
:1006300089859A85AB85BC858D839E83AF83B8877A
:1006400089819A81AB81BC8189879A87AB87BC8776
:10065000D0CFBC01CD012C960FB6F894DEBF0FBEF3
:10066000CDBFDF91CF910895CF93DF9300D01F923C
:10067000CDB7DEB78B8385E090E00E94DD129A83D0
:1006800089838B81882F90E00E94DD129C018981F3
:100690009A81FC013183208389819A81FC01128235
:1006A00089819A81FC01138289819A812B81FC01C5
:1006B000248389819A810F900F900F90DF91CF91C1
:1006C0000895CF93DF9300D0CDB7DEB79A838983A7
:1006D00089819A81FC01938181E0992309F080E06E
:1006E0000F900F90DF91CF910895CF93DF9300D0BB
:1006F000CDB7DEB79A83898389819A81FC012381F2
:1007000089819A81FC01948181E0291709F080E0B8
:100710000F900F90DF91CF910895CF93DF9300D08A
:10072000CDB7DEB79A83898389819A81FC011282D1
:1007300089819A81FC01138200000F900F90DF9154
:10074000CF910895CF93DF9300D01F92CDB7DEB73E
:100750009A8389836B8389819A81FC0123818981B2
:100760009A81FC018481281730F589819A81FC01E6
:100770002081318189819A81FC018281882F90E0DA
:10078000820F931F2B81FC01208389819A81FC01B8
:10079000838121E0280F89819A81FC01238389814B
:1007A0009A81FC01828121E0280F89819A81FC01D4
:1007B000228380E001C081E00F900F900F90DF91C5
:1007C000CF910895CF93DF9300D0CDB7DEB79A8352
:1007D000898389819A81FC018381882321F1898120
:1007E0009A81FC0183812FEF280F89819A81FC0176
:1007F000238389819A81FC0182812FEF280F8981CF
:100800009A81FC01228389819A81FC0120813181B6
:1008100089819A81FC018281882F90E0820F931F49
:10082000FC01808101C080E00F900F90DF91CF919B
:100830000895CF93DF9300D000D0CDB7DEB76983A2
:100840007A838B839C8389819A81AB81BC818093DD
:10085000000190930101A0930201B09303018091E4
:10086000000190910101A0910201B09103018093D8
:10087000D1039093D203A093D303B093D403000089
:100880000F900F900F900F90DF91CF910895CF931D
:10089000DF93CDB7DEB781E890E02BE0FC01208349
:1008A00088E890E02DE730E0FC01318320838FE67B
:1008B00090E022E0FC01208384E890E0FC011182BA
:1008C00010828091000190910101A0910201B091EC
:1008D00003018093D1039093D203A093D303B093E9
:1008E000D4038FE590E02FE530E0F9012081206806
:1008F000FC0120830000DF91CF910895CF93DF9317
:10090000CDB7DEB781E890E0FC0110820000DF91F6
:10091000CF910895CF93DF93CDB7DEB781E0809379
:10092000D0030000DF91CF9108951F920F920090A5
:100930005F000F92112400905B000F922F933F9362
:100940004F935F936F937F938F939F93AF93BF93D7
:10095000EF93FF93CF93DF93CDB7DEB78091D103B1
:100960009091D203A091D303B091D4030197A10930
:10097000B1098093D1039093D203A093D303B09392
:10098000D4038091D1039091D203A091D303B0916D
:10099000D403892B8A2B8B2B91F40E948A0480919B
:1009A000000190910101A0910201B0910301809397
:1009B000D1039093D203A093D303B093D403000048
:1009C000DF91CF91FF91EF91BF91AF919F918F9167
:1009D0007F916F915F914F913F912F910F90009276
:1009E0005B000F9000925F000F901F901895CF93BF
:1009F000DF9300D0CDB7DEB78A8385E290E025E2B1
:100A000030E0F90120812D7FFC01208319822EC066
:100A10008A81882354F485E290E025E230E0F901F0
:100A200020812860FC01208309C085E290E025E256
:100A300030E0F9012081277FFC0120838A81880F23
:100A40008A8385E290E025E230E0F901208120618F
:100A5000FC01208385E290E025E230E0F90120816D
:100A60002F7EFC01208389818F5F89838981883073
:100A700078F285E290E025E230E0F9012081226001
:100A8000FC01208300000F900F90DF91CF9108951B
:100A9000CF93DF9300D0CDB7DEB78A8319821CC015
:100AA0008A81082E000C990B9C0120523109898102
:100AB000482F50E0C901880F991F880F991F820F96
:100AC000931F840F951F8E5D9E4FFC0180810E94B5
:100AD000F70489818F5F89838981853008F300005D
:100AE0000F900F90DF91CF910895CF93DF9300D0B7
:100AF000CDB7DEB79A8389830BC089819A819C0127
:100B00002F5F3F4F3A832983FC0180810E94480573
:100B100089819A81FC018081882379F700000F90F8
:100B20000F90DF91CF910895CF93DF9300D0CDB791
:100B3000DEB71A82198208C080E00E94F70489811A
:100B40009A8101969A83898389819A81883F91400D
:100B500098F385E290E025E230E0F90120812B7FD7
:100B6000FC01208380E40E94F70480E80E94F704DF
:100B700085E290E025E230E0F90120812460FC016B
:100B8000208300000F900F90DF91CF910895CF93B5
:100B9000DF93CDB7DEB785E290E025E230E0F901E2
:100BA00020812E7FFC01208382E390E00E9492014D
:100BB00085E290E025E230E0F90120812160FC012E
:100BC000208383E20E94F70480E90E94F70480E218
:100BD0000E94F7048CE00E94F70485E290E025E291
:100BE00030E0F90120812460FC0120830E949405FB
:100BF0000000DF91CF910895CF93DF9300D01F9233
:100C0000CDB7DEB789837B836A8389818A3031F4EB
:100C10008A819B81BC018DE00E94FC0580EC90E004
:100C2000FC018081882F90E080729927892BB1F395
:100C300086EC90E02981FC01208380E090E00F9019
:100C40000F900F90DF91CF910895CF93DF93CDB7A1
:100C5000DEB78BE290E02BE230E0F90120812260E8
:100C6000FC0120838BE290E02BE230E0F90120814F
:100C70002D7FFC0120830000DF91CF910895CF9359
:100C8000DF93CDB7DEB78BE290E02BE230E0F901E5
:100C900020812160FC0120830000DF91CF91089525
:100CA000CF93DF93CDB7DEB78BE290E02BE230E05D
:100CB000F90120812E7FFC0120830000DF91CF917C
:100CC0000895CF93DF9300D0CDB7DEB78A838BE250
:100CD00090E02BE230E0F90120812B7FFC012083A2
:100CE000198210C08A8188231CF40E943F0602C02A
:100CF0000E9450068A81880F8A830E942506898176
:100D00008F5F89838981883068F38BE290E02BE2E2
:100D100030E0F90120812460FC01208300000F9065
:100D20000F90DF91CF910895CF93DF9300D0CDB78F
:100D3000DEB79A8389838091DD03882F90E08170EC
:100D40009927892B21F01A8219821092DE0389815A
:100D50009A818130910509F4D1C0823091051CF44B
:100D6000892B49F014C28230910509F4FDC0039724
:100D700009F420C10CC28091E1039091E203892B18
:100D800069F48091E1039091E20301969093E2036C
:100D90008093E1038FEF80931B0194C08091E10366
:100DA0009091E203019791F48091E1039091E20325
:100DB00001969093E2038093E10380911201809366
:100DC000E3038091130180931B017CC08091E103B8
:100DD0009091E203029769F48091E1039091E2031C
:100DE00001969093E2038093E1038FEF80931B01C0
:100DF00069C08091E1039091E203039791F480919F
:100E0000E1039091E20301969093E2038093E10362
:100E1000809114018093E3038091150180931B015D
:100E200051C08091E1039091E203049769F48091AD
:100E3000E1039091E20301969093E2038093E10332
:100E40008FEF80931B013EC08091E1039091E203FC
:100E5000059771F48091E1039091E20301969093DC
:100E6000E2038093E1038091160180931B012AC065
:100E70008091E1039091E203069769F48091E10388
:100E80009091E20301969093E2038093E1038FEF48
:100E900080931B0117C08091E1039091E2030797B3
:100EA00069F41092E2031092E1038091170180939C
:100EB000E3038091180180931B0104C01092E203A8
:100EC0001092E1038091D503882341F081E090E006
:100ED0009A8389831092E2031092E1038091D603F2
:100EE000882309F457C182E090E09A8389831092A5
:100EF000E2031092E1031092DE034CC18091E10302
:100F00009091E20301969093E2038093E1038FEFC7
:100F10008093E30380EE80931B018091DD03882F93
:100F200090E082709927892B09F436C183E090E024
:100F30009A8389831092E2031092E1031092E303F3
:100F40008FEF80931B011092D50381E08093DE0325
:100F50008091E003882309F41FC11092E0031092EE
:100F6000DE031A82198218C18091E1039091E20395
:100F700001969093E2038093E1038FEF8093E30364
:100F80008BEF80931B018091DD03882F90E08270AE
:100F90009927892B09F402C11A8219821092E2035F
:100FA0001092E1031092E3038FEF80931B011092E4
:100FB000D603F4C08091E1039091E203892B69F498
:100FC0008091E1039091E20301969093E203809374
:100FD000E1038FEF80931B01BFC08091E1039091EB
:100FE000E203019791F48091E1039091E20301966D
:100FF0009093E2038093E103809112018093E303D5
:101000008091130180931B01A7C08091E10390910F
:10101000E203029769F48091E1039091E203019663
:101020009093E2038093E1038FEF80931B0194C0C0
:101030008091E1039091E203039791F48091E103A1
:101040009091E20301969093E2038093E1038091F3
:1010500019018093E30380911A0180931B017CC0E6
:101060008091E1039091E203049769F48091E10398
:101070009091E20301969093E2038093E1038FEF56
:1010800080931B0169C08091E1039091E203059771
:1010900091F48091E1039091E20301969093E20331
:1010A0008093E103809114018093E3038091150103
:1010B00080931B0151C08091E1039091E203069758
:1010C00069F48091E1039091E20301969093E20329
:1010D0008093E1038FEF80931B013EC08091E10379
:1010E0009091E203079771F48091E1039091E203FC
:1010F00001969093E2038093E1038091160180931F
:101100001B012AC08091E1039091E203089769F4E2
:101110008091E1039091E20301969093E203809322
:10112000E1038FEF80931B0117C08091E103909141
:10113000E203099769F41092E2031092E1038091AF
:1011400017018093E3038091180180931B0104C071
:101150001092E2031092E1038091E003882341F0B2
:1011600081E090E09A8389831092E2031092E10378
:101170008091D6038823A1F082E090E09A8389834E
:101180001092E2031092E1031092DE0309C01A826A
:10119000198207C0000005C0000003C0000001C0A4
:1011A000000088E290E02091E303FC01208380911D
:1011B0001B010E94610689819A810F900F90DF9137
:1011C000CF910895CF93DF9300D0CDB7DEB79A8348
:1011D000898389819A81092E000CAA0BBB0B40E000
:1011E00050E02CE030E0841B950B2817390708F4F9
:1011F000B6C38A5B9F4FFC010C94D4128091DD032F
:10120000882F90E082709927892B09F4ABC38091D5
:10121000DE03882329F087E090E09A838983A2C3C4
:1012200081E090E09A8389839DC38091170181308A
:1012300041F482E090E09A83898382E080931701F1
:101240009EC38091170186958093170198C3809162
:101250001701803841F481E090E09A83898380E42B
:101260008093170105C080911701880F80931701A3
:1012700080911701803851F49091180180911601E6
:10128000981721F483E090E09A8389838091170175
:10129000803809F069C39091180180911501981761
:1012A00009F462C39091180180911601981709F40E
:1012B0005BC381E08093D60357C3809118018F3EB2
:1012C000A1F480911701813081F486E090E09A8347
:1012D0008983809118018695806880931801809198
:1012E0001701880F809317014AC3809118018F3E20
:1012F00081F484E090E09A83898380911801869537
:10130000806880931801809117018695809317015A
:1013100036C380911701813099F485E090E09A837B
:10132000898380911801882F90E0880F991F816030
:101330008093180180911701880F809317011FC3B4
:1013400080911801882F90E0880F991F8160809309
:1013500018018091170186958093170110C3809121
:1013600018018E3FB9F480911701813099F485E01E
:1013700090E09A83898380911801882F90E0880FEC
:10138000991F81608093180180911701880F8093C5
:101390001701F5C2809118018E3F99F483E090E027
:1013A0009A83898380911801882F90E0880F991F74
:1013B00081608093180180911701869580931701B1
:1013C000DEC280911701813081F486E090E09A833B
:1013D0008983809118018695806880931801809197
:1013E0001701880F80931701CAC280911801869552
:1013F000806880931801809117018695809317016A
:10140000BEC2809118018F3EA1F4809117018038EF
:1014100081F484E090E09A83898380911801869515
:101420008068809318018091170186958093170139
:1014300049C0809118018F3E81F486E090E09A8344
:101440008983809118018695806880931801809126
:101450001701880F8093170135C0809117018038DC
:1014600019F59091180180911501981799F083E072
:1014700090E09A83898380911801882F90E0880FEB
:10148000991F816080931801809117018695809340
:10149000170118C081E090E09A8389838091170139
:1014A0008695809317010EC080911801882F90E0D7
:1014B000880F991F81608093180180911701880F10
:1014C0008093170180911701803809F04FC29091E5
:1014D000180180911501981709F448C290911801DC
:1014E00080911601981709F441C281E08093D603D8
:1014F0003DC2809118018E3F71F4809117018038B0
:1015000051F483E090E09A83898380911701869556
:101510008093170146C0809118018E3F99F485E0B1
:1015200090E09A83898380911801882F90E0880F3A
:10153000991F81608093180180911701880F809313
:1015400017012FC080911701803801F59091180183
:1015500080911501981781F084E090E09A83898347
:1015600080911801869580688093180180911701F9
:1015700086958093170115C081E090E09A83898356
:10158000809117018695809317010BC080911801F7
:10159000869580688093180180911701880F809349
:1015A000170180911701803809F0E2C1909118016C
:1015B00080911501981709F4DBC190911801809171
:1015C0001601981709F4D4C181E08093D603D0C1E5
:1015D00080911701823041F488E090E09A838983FA
:1015E00084E080931701CBC1809117018695809389
:1015F0001701C5C180911701803841F487E090E060
:101600009A83898380E48093170105C08091170134
:10161000880F8093170180911701803851F49091C1
:10162000180180911601981721F489E090E09A83BF
:10163000898380911701803809F09CC1909118012D
:1016400080911501981709F495C190911801809126
:101650001601981709F48EC181E08093D6038AC1E0
:10166000809118018F3EA1F480911701823081F49E
:101670008CE090E09A838983809118018695806838
:101680008093180180911701880F8093170177C10B
:10169000809118018F3E81F48AE090E09A838983DB
:1016A00080911801869580688093180180911701B8
:1016B00086958093170163C180911701823099F458
:1016C0008BE090E09A83898380911801882F90E0C5
:1016D000880F991F81608093180180911701880FEE
:1016E000809317014CC180911801882F90E0880FDA
:1016F000991F8160809318018091170186958093CE
:1017000017013DC1809118018E3FB9F480911701F6
:10171000823099F48BE090E09A838983809118015C
:10172000882F90E0880F991F816080931801809125
:101730001701880F8093170122C1809118018E3FF5
:1017400099F489E090E09A83898380911801882F29
:1017500090E0880F991F8160809318018091170194
:101760008695809317010BC180911701823081F417
:101770008CE090E09A838983809118018695806837
:101780008093180180911701880F80931701F7C08B
:1017900080911801869580688093180180911701C7
:1017A000869580931701EBC0809118018F3EA1F4BC
:1017B00080911701803881F48AE090E09A838983D0
:1017C0008091180186958068809318018091170197
:1017D00086958093170140C0809118018F3E81F457
:1017E0008CE090E09A8389838091180186958068C7
:1017F0008093180180911701880F809317012CC0E6
:10180000809117018038D1F49091180180911501D1
:10181000981751F089E090E09A83898380911701AD
:1018200086958093170118C087E090E09A8389839A
:10183000809117018695809317010EC08091180141
:10184000882F90E0880F991F816080931801809104
:101850001701880F8093170180911701803809F0D4
:101860008BC09091180180911501981709F484C0DC
:101870009091180180911601981709F47DC081E0BC
:101880008093D60379C0809118018E3F71F48091C6
:101890001701803851F489E090E09A838983809120
:1018A000170186958093170146C0809118018E3FDD
:1018B00099F48BE090E09A83898380911801882FB6
:1018C00090E0880F991F8160809318018091170123
:1018D000880F809317012FC080911701803801F580
:1018E0009091180180911501981781F08AE090E09D
:1018F0009A83898380911801869580688093180166
:101900008091170186958093170115C087E090E0BC
:101910009A838983809117018695809317010BC064
:101920008091180186958068809318018091170135
:10193000880F80931701809117018038F9F49091F6
:101940001801809115019817C9F0909118018091A4
:101950001601981799F081E08093D6030FC01A8280
:1019600019820DC000000BC0000009C0000007C0B4
:10197000000005C0000003C0000001C0000080910D
:10198000D503882341F01A82198280E480931701DD
:101990008BEF809318018091D603882341F01A823F
:1019A000198280E4809317018BEF80931801809156
:1019B000DD03882F90E081709927892B41F01A82EE
:1019C000198280E4809317018BEF80931801809136
:1019D000DF03882351F080911701803831F4109291
:1019E000DF0383E090E09A83898389819A810F9055
:1019F0000F90DF91CF910895CF93DF9300D0CDB7B3
:101A0000DEB79A83898389819A818130910521F19A
:101A10008230910509F450C0892B09F077C080EE1F
:101A20008093130180EE80931A018091DD03882F4B
:101A300090E082709927892B09F46BC08091DE03B6
:101A4000882329F082E090E09A83898362C081E054
:101A500090E09A8389835DC080911701813009F0FD
:101A60005AC0809113018093E403809118018095FE
:101A700090911301892B809313019091E40380913D
:101A80001301981741F08091D7038F5F8093D7039C
:101A900081E08093D803809113018F3FE1F581E0CD
:101AA0008093D5031A8219828091DE03882399F1ED
:101AB00081E08093E0032FC080911701823069F5A7
:101AC00080911A018093E403809118018095909190
:101AD0001A01892B80931A019091E40380911A01D5
:101AE000981741F08091D7038F5F8093D70381E0EF
:101AF0008093D80380911A018F3F79F481E080931D
:101B0000DF0381E090E09A83898307C01A821982FB
:101B100005C0000003C0000001C000008091D60392
:101B2000882311F01A8219828091DD03882F90E0BA
:101B300081709927892B11F01A82198289819A81E3
:101B40000F900F90DF91CF910895CF93DF9300D046
:101B5000CDB7DEB79A83898389819A8181309105D7
:101B600011F1823091051CF4892B49F086C0823036
:101B7000910509F45EC0039709F46DC07EC08BEF38
:101B80008093150187EF809316018091DD03882FE4
:101B900090E082709927892B09F472C081E090E06F
:101BA0009A8389836DC08091DD03882F90E08470D3
:101BB0009927892BA9F0809115018E3F89F080919A
:101BC0001501869580688093150180911601869590
:101BD00080688093160182E090E09A83898328C010
:101BE0008091DD03882F90E088709927892BD9F0A8
:101BF000809116018F3EB9F080911501882F90E0F9
:101C0000880F991F81608093150180911601882F9C
:101C100090E0880F991F81608093160183E090E027
:101C20009A83898305C081E090E09A83898329C0E3
:101C300028C08091DD03882F90E084709927892B3C
:101C400029F082E090E09A8389831BC081E090E0D4
:101C50009A83898316C08091DD03882F90E0887075
:101C60009927892B29F083E090E09A83898309C022
:101C700081E090E09A83898304C01A82198201C0AE
:101C800000008091D503882311F01A821982809177
:101C9000D603882311F01A8219828091DD03882FE0
:101CA00090E081709927892B11F01A82198289811D
:101CB0009A810F900F90DF91CF910895CF93DF938A
:101CC000CDB7DEB728970FB6F894DEBF0FBECDBFF5
:101CD00098878F838F819885092E000CAA0BBB0BE8
:101CE00040E050E02BE030E0841B950B28173907CB
:101CF00008F43EC18D5A9F4FFC010C94D4121092EF
:101D0000D7030E94940582E093E00E947505198232
:101D100006C080E00E94F70489818F5F89838981F2
:101D20008438B8F38BE193E00E94750585E090E07C
:101D300098878F832BC10E94940585E393E00E94CE
:101D400075051A8206C080E00E94F7048A818F5FC1
:101D50008A838A818839B8F38AE493E00E94750502
:101D60008091D703805D0E94480586E090E09887C7
:101D70008F830CC185E290E025E230E0F9012081FB
:101D80002B7FFC01208383E40E94F7048FE90E94EB
:101D9000F70485E290E025E230E0F901208124603B
:101DA000FC01208380E00E94F70480E00E94F70499
:101DB00080E00E94F70480E00E94F7048091D7033E
:101DC0008A3030F48091D703805D0E94480508C0B6
:101DD00081E30E9448058091D7038A5D0E944805EF
:101DE00086E090E098878F838091D503882321F047
:101DF00083E090E098878F838091E003882309F443
:101E0000BAC08AE090E098878F83B5C00E9494059D
:101E100082E593E00E9475051B8206C080E00E9467
:101E2000F7048B818F5F8B838B818435B8F384E6D5
:101E300093E00E9475058091D703805D0E9448055C
:101E400087E090E098878F83A1C00E94940584E783
:101E500093E00E9475051C8206C080E00E94F70492
:101E60008C818F5F8C838C818336B8F383E893E019
:101E70000E9475058091D7038A3030F48091D70392
:101E8000805D0E94480508C081E30E94480580915A
:101E9000D7038A5D0E94480588E090E098878F8389
:101EA00075C08091DD03882F90E082709927892B7F
:101EB00009F463C081E090E098878F835EC08091D1
:101EC000D803882309F45BC082E090E098878F8371
:101ED0001092D80354C08091D503882309F051C0D3
:101EE00089E090E098878F834CC08091D603882347
:101EF00009F049C018861F8246C00E94940581E9F6
:101F000093E00E9475051D8206C080E00E94F704E0
:101F10008D818F5F8D838D81843AB8F38BE193E05F
:101F20000E94750585E090E098878F832FC00E94FE
:101F3000940584EA93E00E9475051E8206C080E045
:101F40000E94F7048E818F5F8E838E818336B8F373
:101F500083EB93E00E9475058BE090E098878F8378
:101F600015C08091E003882381F418861F820DC07C
:101F700018861F820BC0000009C0000007C00000C7
:101F800005C0000003C0000001C000008091DD0317
:101F9000882F90E081709927892B91F08F81988507
:101FA000039771F08F819885079751F08F819885FD
:101FB0000A9731F08F8198850B9711F018861F8250
:101FC0008091D603882341F08F819885089721F06E
:101FD00084E090E098878F838F81988528960FB64C
:101FE000F894DEBF0FBECDBFDF91CF910895CF93A0
:101FF000DF9300D0CDB7DEB79A83898388E790E07E
:10200000FC01808191819093DA038093D9038091C0
:10201000D9039091DA038D3B924020F082E08093C7
:10202000DD030AC08091D9039091DA038C3291408C
:1020300018F481E08093DD038CE790E02CE730E03A
:10204000F90120812160FC01208381E090E00E9461
:10205000920188E790E0FC01808191819093DC03FC
:102060008093DB038091DB039091DC038D3B9240F6
:1020700030F08091DD0384608093DD030CC080919B
:10208000DB039091DC038C32914028F48091DD03D6
:1020900088608093DD038091D9039091DA038C3BB3
:1020A0009240B8F48091D9039091DA038D32914037
:1020B00080F08091DB039091DC038C3B924048F4EC
:1020C0008091DB039091DC038D32914010F01092EF
:1020D000DD038CE790E02CE730E0F90120812E7FD2
:1020E000FC01208389819A810F900F90DF91CF911D
:1020F0000895CF93DF93CDB7DEB78AE790E02AE764
:1021000030E0F9012081206EFC0120830000DF9186
:10211000CF9108950F931F93CF93DF93CDB7DEB781
:1021200067970FB6F894DEBF0FBECDBF81E290E097
:10213000FC01108282E290E02FEFFC01208384E218
:1021400090E02FEFFC01208385E290E023E0FC018A
:10215000208387E290E02FEFFC01208388E290E06B
:10216000FC0110828AE290E027E0FC0120838BE2F0
:1021700090E028EFFC0120830E9479100E94C7059F
:102180008CE0E3ECF3E0DE011C9601900D928A9561
:10219000E1F786E090E09A8789878FEF8B878B85C0
:1021A0008093E50381E090E0A0E0B0E08093E60357
:1021B0009093E703A093E803B093E9038091E603CB
:1021C0009091E703A091E803B091E9038093EA03BB
:1021D0009093EB03A093EC03B093ED0384E996E0B6
:1021E0009093EF038093EE038B858093F0038CE252
:1021F00091E0A0E0B0E08093F1039093F203A0930C
:10220000F303B093F4038091F1039091F203A09152
:10221000F303B091F4038093F5039093F603A09336
:10222000F703B093F80382EE98E09093FA0380935B
:10223000F9038B858093FB0388EC90E0A0E0B0E08D
:102240008093FC039093FD03A093FE03B093FF03E0
:102250008091FC039091FD03A091FE03B091FF03D8
:102260008093000490930104A0930204B0930304AC
:102270008CEF9CE090930504809304048B858093FD
:10228000060482E390E0A0E0B0E08093070490931E
:102290000804A0930904B0930A0480910704909164
:1022A0000804A0910904B0910A0480930B04909350
:1022B0000C04A0930D04B0930E0485EA9DE0909366
:1022C000100480930F048B858093110484E190E0C7
:1022D000A0E0B0E08093120490931304A093140440
:1022E000B09315048091120490911304A0911404EA
:1022F000B09115048093160490931704A0931804CA
:10230000B093190487EF9FE090931B0480931A0405
:102310008B8580931C0486E990E0A0E0B0E0809378
:102320001D0490931E04A0931F04B0932004809179
:102330001D0490911E04A0911F04B091200480936D
:10234000210490932204A0932304B09324048EE5E7
:102350009EE090932604809325048C859D85FC0146
:1023600081819281A381B48189839A83AB83BC8369
:1023700081E090E09E838D8325C08D819E81880FB2
:10238000991F9E012F5F3F4F820F931F0B96FC01F9
:1023900080819181FC012181328143815481898135
:1023A0009A81AB81BC81BC01CD010E94E702DC01B6
:1023B000CB0189839A83AB83BC838D819E810196F7
:1023C0009E838D832D813E8189859A8528173907C3
:1023D000A0F289819A81AB81BC81BC01CD010E94B0
:1023E00019040E94470418861F82A0C08F81988517
:1023F000880F991F9E012F5F3F4F820F931F0B96EF
:10240000FC0180819181FC012581368147815085C5
:102410008F819885880F991FBE016F5F7F4F860F50
:10242000971F0B96FC0180819181FC018181928133
:10243000A381B481281739074A075B0708F445C010
:102440008F819885880F991F9E012F5F3F4F820FC4
:10245000931F0B96FC01008111818F819885880F55
:10246000991F9E012F5F3F4F820F931F0B96FC0118
:1024700080819181FC01218532858F819885880F2B
:10248000991FAE014F5F5F4F840F951F0B96FC01A4
:1024900080819181FC018081082E000C990BF9014B
:1024A0000995F80180838F819885880F991F9E0177
:1024B0002F5F3F4F820F931F0B96FC01808191810C
:1024C000FC0115821682178210868F819885880FED
:1024D000991F9E012F5F3F4F820F931F0B96FC01A8
:1024E000608171818F819885880F991F9E012F5F70
:1024F0003F4F820F931F0B96FC0180819181FC015D
:10250000258136814781508589819A81AB81BC8143
:10251000820F931FA41FB51FFB0185839683A7839A
:10252000B0878F819885019698878F832F81388512
:1025300089859A852817390708F458CF00008091BB
:10254000D0038823E1F31092D0034DCF991B79E09B
:1025500004C0991F961708F0961B881F7A95C9F733
:1025600080950895A1E21A2EAA1BBB1BFD010DC088
:10257000AA1FBB1FEE1FFF1FA217B307E407F50733
:1025800020F0A21BB30BE40BF50B661F771F881F0F
:10259000991F1A9469F760957095809590959B01A5
:1025A000AC01BD01CF010895EE0FFF1F0024001CF8
:1025B0000BBE0790F691E02D09940F931F93CF93D4
:1025C000DF938230910510F482E090E0E0912904DD
:1025D000F0912A0420E030E0A0E0B0E0309719F15B
:1025E000408151810281138148175907C8F084172F
:1025F000950769F4109731F012960C931297139681
:102600001C9327C00093290410932A0422C021158B
:10261000310519F04217530718F49A01BD01EF0173
:10262000DF01F801DBCF21153105F9F0281B390B4B
:102630002430310580F48A819B816115710521F078
:10264000FB019383828304C090932A04809329041E
:10265000FE01329644C0FE01E20FF31F8193919375
:1026600022503109398328833AC0209127043091C0
:102670002804232B41F420911E0130911F01309337
:1026800028042093270420911C0130911D0121155D
:10269000310541F42DB73EB7409120015091210101
:1026A000241B350BE0912704F0912804E217F3076F
:1026B000A0F42E1B3F0B2817390778F0AC014E5FB2
:1026C0005F4F2417350748F04E0F5F1F50932804C3
:1026D000409327048193919302C0E0E0F0E0CF01A2
:1026E000DF91CF911F910F910895CF93DF930097C2
:1026F00009F481C0FC01329713821282A09129044F
:10270000B0912A04109781F420813181820F931FA8
:1027100020912704309128042817390751F5F093A8
:102720002804E093270467C0ED0120E030E0CE17D5
:10273000DF0740F44A815B819E0141155105F1F0AC
:10274000EA01F5CFD383C28340815181840F951F65
:10275000C817D90759F488819981840F951F02966B
:10276000918380838A819B819383828321153105A4
:1027700029F4F0932A04E09329043DC0E901FB8386
:10278000EA8349915991C40FD51FEC17FD0761F4F5
:1027900080819181840F951F0296E9019983888336
:1027A000828193819B838A83E0E0F0E012968D9191
:1027B0009C911397009719F0FD01DC01F7CF8D91E3
:1027C0009C9111979D012E5F3F4F820F931F209187
:1027D0002704309128042817390769F4309729F421
:1027E00010922A041092290402C013821282B0931C
:1027F0002804A0932704DF91CF910895F894FFCF88
:10280000010000000000000200000000FC050000C4
:10281000000001E080FBF740FB02E0FF00002B041A
:102820002000000000000000005F0000000700071B
:1028300000147F147F14242A7F2A12231308646251
:1028400036495522500005030000001C22410000BB
:1028500041221C0014083E081408083E08080050D5
:102860003000000808080808006060000020100818
:1028700004023E5149453E00427F400042615149B9
:10288000462141454B311814127F102745454539E3
:102890003C4A494930017109050336494949360620
:1028A0004949291E0036360000005636000008143B
:1028B000224100141414141400412214080201517E
:1028C0000906324979413E7E1111117E7F494949FD
:1028D000363E414141227F4141221C7F49494941C5
:1028E0007F090909013E4149497A7F0808087F00AC
:1028F000417F41002040413F017F081422417F4039
:102900004040407F020C027F7F0408107F3E41411F
:10291000413E7F090909063E4151215E7F0919297F
:1029200046464949493101017F01013F4040403F4E
:102930001F2040201F3F4038403F631408146307A6
:10294000087008076151494543007F414100020476
:102950000810200041417F00040201020440404071
:102960004040000102040020545454787F484444FD
:10297000383844444420384444487F385454541828
:10298000087E0901020C5252523E7F08040478006E
:10299000447D40002040443D007F10284400004119
:1029A0007F40007C041804787C0804047838444490
:1029B00044387C14141408081414187C7C0804048B
:1029C000084854545420043F4440203C4040207C5C
:1029D0001C2040201C3C4030403C44281028440C23
:1029E0005050503C4464544C4400083641000000B0
:1029F0007F000000413608001008081008000000A1
:102A0000000057656C636F6D6520746F20427269BA
:102A1000636B20427265616B6572004D6F76652055
:102A20006A6F79737469636B20757020746F20739B
:102A3000746172740047616D6520696E2070726FF9
:102A40006772657373202E2E2E0073636F72653A62
:102A500020004C6576656C203120636F6D706C656D
:102A60007465210043757272656E742073636F72B2
:102A7000653A200047472E2047616D65204F7665F7
:102A800072210046696E616C2073636F72653A2033
:102A90000057656C636F6D6520746F206C6576659B
:102AA0006C2032004E6963652120596F7520576F85
:102AB0006E2100546F74616C2073636F72653A20ED
:102AC000313500E503F003FB03060411041C040088
:00000001FF
