:100000000C945F000C947E000C947E000C947E0097
:100010000C947E000C947E000C947E000C947E0068
:100020000C947E000C947E000C947E000C947E0058
:100030000C947E000C9444020C947E000C947E0080
:100040000C947E000C947E000C947E000C947E0038
:100050000C947E000C947E000C947E000C947E0028
:100060000C947E000C947E000C947E000C947E0018
:100070000C947E000C947E000C947E000C947E0008
:100080000C947E000C947E000C947E00AD06C40699
:10009000D6060C075E07B00728089708A908DF08EE
:1000A00031098309F2092E0C4A0C690CB50CD40CE9
:1000B000000D0E0D1A0D240D2C0D460D600D112492
:1000C0001FBECFEFD0E4DEBFCDBF13E0A0E0B1E0B4
:1000D000E4E0F1E200E00BBF02C007900D92AA3C01
:1000E000B107D9F724E0AAECB3E001C01D92A13218
:1000F000B207E1F70E94390E0C9480100C940000B6
:10010000CF93DF93CDB7DEB781E00E94A700000058
:10011000DF91CF910895CF93DF93CDB7DEB784E61B
:1001200090E00E944B0188E30E94A70086E00E94B5
:10013000A7008FE00E94A70081E00E94A7008AE04C
:1001400090E00E944B010000DF91CF910895CF9382
:10015000DF931F92CDB7DEB789838BE290E02BE26D
:1001600030E0F90120812F7BFC01208382E290E0C6
:100170002981FC0120838BE290E02BE230E0F90141
:1001800020812068FC01208300008BE290E02BE2BC
:1001900030E0F90120812F77FC01208382E090E09C
:1001A0000E944B0100000F90DF91CF910895CF93F3
:1001B000DF931F92CDB7DEB789838BE290E02BE20D
:1001C00030E0F90120812064FC01208382E290E08C
:1001D0002981FC0120838BE290E02BE230E0F901E1
:1001E00020812068FC01208300008BE290E02BE25C
:1001F00030E0F90120812F77FC01208381E090E03D
:100200000E944B0100000F90DF91CF910895CF9392
:10021000DF9300D000D0CDB7DEB78A837C836B83B9
:100220000E9480008A81898311C0898191E0980FA2
:1002300099830E9434018B819C819C012F5F3F4FE9
:100240003C832B83FC0180810E94D7008B819C81A1
:10025000FC018081882349F700000F900F900F90D8
:100260000F90DF91CF910895CF93DF931F92CDB779
:10027000DEB789838981813128F4898181580E9480
:10028000A70004C0898181550E94A70000000F903B
:10029000DF91CF910895CF93DF9300D000D000D0AD
:1002A000CDB7DEB79E838D831A82198213C01C825C
:1002B0001B8206C000008B819C8101969C838B83EE
:1002C0008B819C8187309340ACF389819A81019620
:1002D0009A83898329813A818D819E8128173907E4
:1002E00034F3000026960FB6F894DEBF0FBECDBFE4
:1002F000DF91CF910895CF93DF93CDB7DEB72C97E1
:100300000FB6F894DEBF0FBECDBF6D837E838F83A3
:10031000988729873A874B875C878D819E81AF813B
:10032000B88529853A854B855C85BC01CD010E9445
:100330005510DC01CB0189839A83AB83BC8389810F
:100340009A81AB81BC81892B8A2B8B2B29F48985DF
:100350009A85AB85BC8511C089859A85AB85BC859E
:100360008D839E83AF83B88789819A81AB81BC815D
:1003700089879A87AB87BC87D0CFBC01CD012C96EB
:100380000FB6F894DEBF0FBECDBFDF91CF910895B9
:10039000CF93DF9300D000D0CDB7DEB769837A83E7
:1003A0008B839C8389819A81AB81BC81809300017E
:1003B00090930101A0930201B09303018091000189
:1003C00090910101A0910201B09103018093CB03B0
:1003D0009093CC03A093CD03B093CE0300000F9075
:1003E0000F900F900F90DF91CF910895CF93DF93EF
:1003F000CDB7DEB781E890E02BE0FC01208388E8F0
:1004000090E02DE730E0FC01318320838FE690E01F
:1004100022E0FC01208384E890E0FC01118210823C
:100420008091000190910101A0910201B09103011E
:100430008093CB039093CC03A093CD03B093CE03D2
:100440008FE590E02FE530E0F90120812068FC0184
:1004500020830000DF91CF910895CF93DF93CDB734
:10046000DEB781E890E0FC0110820000DF91CF91BF
:100470000895CF93DF93CDB7DEB781E08093CA03B1
:100480000000DF91CF9108951F920F9200905F00BE
:100490000F92112400905B000F922F933F934F9384
:1004A0005F936F937F938F939F93AF93BF93EF93DC
:1004B000FF93CF93DF93CDB7DEB78091CB039091BD
:1004C000CC03A091CD03B091CE030197A109B1094E
:1004D0008093CB039093CC03A093CD03B093CE0332
:1004E0008091CB039091CC03A091CD03B091CE032A
:1004F000892B8A2B8B2B91F40E9439028091000169
:1005000090910101A0910201B09103018093CB036E
:100510009093CC03A093CD03B093CE030000DF9162
:10052000CF91FF91EF91BF91AF919F918F917F916B
:100530006F915F914F913F912F910F9000925B00CF
:100540000F9000925F000F901F901895CF93DF934C
:1005500000D0CDB7DEB78A8385E290E025E230E0B7
:10056000F90120812D7FFC01208319822EC08A8110
:10057000882354F485E290E025E230E0F9012081FF
:100580002860FC01208309C085E290E025E230E08C
:10059000F9012081277FFC0120838A81880F8A83CB
:1005A00085E290E025E230E0F90120812061FC0144
:1005B000208385E290E025E230E0F90120812F7E62
:1005C000FC01208389818F5F89838981883078F25B
:1005D00085E290E025E230E0F90120812260FC0113
:1005E000208300000F900F90DF91CF910895CF935B
:1005F000DF9300D0CDB7DEB78A8319821CC08A8111
:10060000082E000C990B9C01205231098981482F3A
:1006100050E0C901880F991F880F991F820F931FFF
:10062000840F951F845E9E4FFC0180810E94A6026C
:1006300089818F5F89838981853008F300000F905D
:100640000F90DF91CF910895CF93DF9300D0CDB776
:10065000DEB79A8389830BC089819A819C012F5FC1
:100660003F4F3A832983FC0180810E94F7028981F0
:100670009A81FC018081882379F700000F900F9008
:10068000DF91CF910895CF93DF9300D0CDB7DEB740
:100690001A82198208C080E00E94A60289819A818C
:1006A00001969A83898389819A81883F914098F342
:1006B00085E290E025E230E0F90120812B7FFC010A
:1006C000208380E40E94A60280E80E94A60285E2C0
:1006D00090E025E230E0F90120812460FC012083D4
:1006E00000000F900F90DF91CF910895CF93DF938B
:1006F000CDB7DEB785E290E025E230E0F901208158
:100700002E7FFC01208382E390E00E944B0185E272
:1007100090E025E230E0F90120812160FC01208396
:1007200083E20E94A60280E90E94A60280E20E9463
:10073000A6028CE00E94A60285E290E025E230E06D
:10074000F90120812460FC0120830E944303000002
:10075000DF91CF910895CF93DF9300D01F92CDB753
:10076000DEB789837B836A8389818A3031F48A8109
:100770009B81BC018DE00E94AB0380EC90E0FC010A
:100780008081882F90E080729927892BB1F386ECC5
:1007900090E02981FC01208380E090E00F900F9091
:1007A0000F90DF91CF910895CF93DF93CDB7DEB750
:1007B0008BE290E02BE230E0F90120812260FC0125
:1007C00020838BE290E02BE230E0F90120812D7F45
:1007D000FC0120830000DF91CF910895CF93DF9338
:1007E000CDB7DEB78BE290E02BE230E0F90120815B
:1007F0002160FC0120830000DF91CF910895CF9309
:10080000DF93CDB7DEB78BE290E02BE230E0F90169
:1008100020812E7FFC0120830000DF91CF9108957D
:10082000CF93DF9300D0CDB7DEB78A838BE290E021
:100830002BE230E0F90120812B7FFC01208319821B
:1008400010C08A8188231CF40E94EE0302C00E941B
:10085000FF038A81880F8A830E94D40389818F5F76
:1008600089838981883068F38BE290E02BE230E065
:10087000F90120812460FC01208300000F900F907B
:10088000DF91CF910895CF93DF9300D0CDB7DEB73E
:100890009A8389838091D703882F90E0817099276C
:1008A000892B21F01A8219821092D80389819A81AA
:1008B0008130910509F4D1C0823091051CF4892B57
:1008C00049F014C28230910509F4FDC0039709F480
:1008D00020C10CC28091DB039091DC03892B69F469
:1008E0008091DB039091DC0301969093DC0380936D
:1008F000DB038FEF80931B0194C08091DB03909109
:10090000DC03019791F48091DB039091DC03019665
:100910009093DC038093DB03809112018093DD03CD
:100920008091130180931B017CC08091DB03909127
:10093000DC03029769F48091DB039091DC0301965C
:100940009093DC038093DB038FEF80931B0169C0DE
:100950008091DB039091DC03039791F48091DB039A
:100960009091DC0301969093DC038093DB038091EC
:1009700014018093DD038091150180931B0151C008
:100980008091DB039091DC03049769F48091DB0391
:100990009091DC0301969093DC038093DB038FEF4F
:1009A00080931B013EC08091DB039091DC0305978F
:1009B00071F48091DB039091DC0301969093DC034A
:1009C0008093DB038091160180931B012AC08091E4
:1009D000DB039091DC03069769F48091DB0390912F
:1009E000DC0301969093DC038093DB038FEF80930D
:1009F0001B0117C08091DB039091DC03079769F41A
:100A00001092DC031092DB03809117018093DD03C9
:100A10008091180180931B0104C01092DC03109296
:100A2000DB038091CF03882341F081E090E09A833B
:100A300089831092DC031092DB038091D00388231A
:100A400009F457C182E090E09A8389831092DC0315
:100A50001092DB031092D8034CC18091DB0390917C
:100A6000DC0301969093DC038093DB038FEF80938C
:100A7000DD0380EE80931B018091D703882F90E0E7
:100A800082709927892B09F436C183E090E09A831C
:100A900089831092DC031092DB031092DD038FEF49
:100AA00080931B011092CF0381E08093D803809143
:100AB000DA03882309F41FC11092DA031092D803D5
:100AC0001A82198218C18091DB039091DC03019690
:100AD0009093DC038093DB038FEF8093DD038BEF38
:100AE00080931B018091D703882F90E08270992713
:100AF000892B09F402C11A8219821092DC03109228
:100B0000DB031092DD038FEF80931B011092D00363
:100B1000F4C08091DB039091DC03892B69F4809110
:100B2000DB039091DC0301969093DC038093DB035D
:100B30008FEF80931B01BFC08091DB039091DC039A
:100B4000019791F48091DB039091DC0301969093DF
:100B5000DC038093DB03809112018093DD0380919D
:100B6000130180931B01A7C08091DB039091DC03EC
:100B7000029769F48091DB039091DC0301969093D6
:100B8000DC038093DB038FEF80931B0194C0809183
:100B9000DB039091DC03039791F48091DB03909148
:100BA000DC0301969093DC038093DB0380911901B1
:100BB0008093DD0380911A0180931B017CC080919A
:100BC000DB039091DC03049769F48091DB0390913F
:100BD000DC0301969093DC038093DB038FEF80931B
:100BE0001B0169C08091DB039091DC03059791F4B0
:100BF0008091DB039091DC0301969093DC0380935A
:100C0000DB03809114018093DD03809115018093B3
:100C10001B0151C08091DB039091DC03069769F4BE
:100C20008091DB039091DC0301969093DC03809329
:100C3000DB038FEF80931B013EC08091DB0390911B
:100C4000DC03079771F48091DB039091DC0301963C
:100C50009093DC038093DB038091160180931B014A
:100C60002AC08091DB039091DC03089769F480919E
:100C7000DB039091DC0301969093DC038093DB030C
:100C80008FEF80931B0117C08091DB039091DC03F1
:100C9000099769F41092DC031092DB03809117012D
:100CA0008093DD038091180180931B0104C0109292
:100CB000DC031092DB038091DA03882341F081E0AA
:100CC00090E09A8389831092DC031092DB03809179
:100CD000D0038823A1F082E090E09A838983109268
:100CE000DC031092DB031092D80309C01A82198228
:100CF00007C0000005C0000003C0000001C00000E4
:100D000088E290E02091DD03FC01208380911B01AB
:100D10000E94100489819A810F900F90DF91CF91EA
:100D20000895CF93DF9300D0CDB7DEB79A83898340
:100D300089819A81092E000CAA0BBB0B40E050E080
:100D40002CE030E0841B950B2817390708F4B6C354
:100D50008A5B9F4FFC010C9477108091D703882FFA
:100D600090E082709927892B09F4ABC38091D80356
:100D7000882329F087E090E09A838983A2C381E0E9
:100D800090E09A8389839DC380911701813041F45B
:100D900082E090E09A83898382E0809317019EC36A
:100DA0008091170186958093170198C38091170150
:100DB000803841F481E090E09A83898380E48093D5
:100DC000170105C080911701880F8093170180914A
:100DD0001701803851F490911801809116019817ED
:100DE00021F483E090E09A83898380911701803811
:100DF00009F069C39091180180911501981709F4C1
:100E000062C39091180180911601981709F45BC391
:100E100081E08093D00357C3809118018F3EA1F4E5
:100E200080911701813081F486E090E09A83898374
:100E30008091180186958068809318018091170130
:100E4000880F809317014AC3809118018F3E81F467
:100E500084E090E09A838983809118018695806868
:100E6000809318018091170186958093170136C3EE
:100E700080911701813099F485E090E09A8389830D
:100E800080911801882F90E0880F991F81608093CE
:100E9000180180911701880F809317011FC380915B
:100EA0001801882F90E0880F991F816080931801A6
:100EB0008091170186958093170110C380911801C6
:100EC0008E3FB9F480911701813099F485E090E06C
:100ED0009A83898380911801882F90E0880F991F49
:100EE00081608093180180911701880F809317010A
:100EF000F5C2809118018E3F99F483E090E09A83C7
:100F0000898380911801882F90E0880F991F816054
:100F10008093180180911701869580931701DEC296
:100F200080911701813081F486E090E09A83898373
:100F3000809118018695806880931801809117012F
:100F4000880F80931701CAC2809118018695806826
:100F50008093180180911701869580931701BEC276
:100F6000809118018F3EA1F480911701803881F49F
:100F700084E090E09A838983809118018695806847
:100F8000809318018091170186958093170149C0BD
:100F9000809118018F3E81F486E090E09A838983E6
:100FA00080911801869580688093180180911701BF
:100FB000880F8093170135C080911701803819F58B
:100FC0009091180180911501981799F083E090E0B5
:100FD0009A83898380911801882F90E0880F991F48
:100FE0008160809318018091170186958093170185
:100FF00018C081E090E09A838983809117018695DB
:10100000809317010EC080911801882F90E0880FFF
:10101000991F81608093180180911701880F809338
:10102000170180911701803809F04FC29091180183
:1010300080911501981709F448C290911801809188
:101040001601981709F441C281E08093D0033DC294
:10105000809118018E3F71F480911701803851F40E
:1010600083E090E09A83898380911701869580932D
:10107000170146C0809118018E3F99F485E090E0F9
:101080009A83898380911801882F90E0880F991F97
:1010900081608093180180911701880F8093170158
:1010A0002FC080911701803801F59091180180912F
:1010B0001501981781F084E090E09A8389838091EC
:1010C0001801869580688093180180911701869594
:1010D0008093170115C081E090E09A838983809105
:1010E00017018695809317010BC080911801869592
:1010F00080688093180180911701880F80931701F1
:1011000080911701803809F0E2C190911801809117
:101110001501981709F4DBC190911801809116010F
:10112000981709F4D4C181E08093D003D0C1809195
:101130001701823041F488E090E09A83898384E04B
:1011400080931701CBC18091170186958093170179
:10115000C5C180911701803841F487E090E09A83FF
:10116000898380E48093170105C080911701880F5F
:101170008093170180911701803851F490911801E4
:1011800080911601981721F489E090E09A83898371
:1011900080911701803809F09CC1909118018091CD
:1011A0001501981709F495C19091180180911601C5
:1011B000981709F48EC181E08093D0038AC1809191
:1011C00018018F3EA1F480911701823081F48CE0E8
:1011D00090E09A8389838091180186958068809336
:1011E000180180911701880F8093170177C18091B2
:1011F00018018F3E81F48AE090E09A838983809180
:101200001801869580688093180180911701869552
:101210008093170163C180911701823099F48BE0AC
:1012200090E09A83898380911801882F90E0880F3D
:10123000991F81608093180180911701880F809316
:1012400017014CC180911801882F90E0880F991FD9
:101250008160809318018091170186958093170112
:101260003DC1809118018E3FB9F480911701823001
:1012700099F48BE090E09A83898380911801882FFC
:1012800090E0880F991F8160809318018091170169
:10129000880F8093170122C1809118018E3F99F425
:1012A00089E090E09A83898380911801882F90E0EB
:1012B000880F991F8160809318018091170186958E
:1012C000809317010BC180911701823081F48CE06B
:1012D00090E09A8389838091180186958068809335
:1012E000180180911701880F80931701F7C0809132
:1012F0001801869580688093180180911701869562
:1013000080931701EBC0809118018F3EA1F480916A
:101310001701803881F48AE090E09A838983809174
:101320001801869580688093180180911701869531
:101330008093170140C0809118018F3E81F48CE0AA
:1013400090E09A83898380911801869580688093C4
:10135000180180911701880F809317012CC080918C
:1013600017018038D1F490911801809115019817D8
:1013700051F089E090E09A838983809117018695E6
:101380008093170118C087E090E09A838983809149
:1013900017018695809317010EC080911801882F40
:1013A00090E0880F991F8160809318018091170148
:1013B000880F8093170180911701803809F08BC046
:1013C0009091180180911501981709F484C09091AB
:1013D000180180911601981709F47DC081E080936F
:1013E000D00379C0809118018E3F71F4809117016C
:1013F000803851F489E090E09A83898380911701C5
:1014000086958093170146C0809118018E3F99F40C
:101410008BE090E09A83898380911801882F90E077
:10142000880F991F81608093180180911701880FA0
:10143000809317012FC080911701803801F590919A
:10144000180180911501981781F08AE090E09A8345
:101450008983809118018695806880931801809116
:10146000170186958093170115C087E090E09A8355
:101470008983809117018695809317010BC0809115
:101480001801869580688093180180911701880F54
:1014900080931701809117018038F9F49091180119
:1014A000809115019817C9F090911801809116014B
:1014B000981799F081E08093D0030FC01A821982A7
:1014C0000DC000000BC0000009C0000007C00000F4
:1014D00005C0000003C0000001C000008091CF03E0
:1014E000882341F01A82198280E4809317018BEFE0
:1014F000809318018091D003882341F01A821982C9
:1015000080E4809317018BEF809318018091D703BB
:10151000882F90E081709927892B41F01A821982D7
:1015200080E4809317018BEF809318018091D90399
:10153000882351F080911701803831F41092D9033B
:1015400083E090E09A83898389819A810F900F903C
:10155000DF91CF910895CF93DF9300D0CDB7DEB761
:101560009A83898389819A818130910521F1823022
:10157000910509F450C0892B09F077C080EE809363
:10158000130180EE80931A018091D703882F90E099
:1015900082709927892B09F46BC08091D803882326
:1015A00029F082E090E09A83898362C081E090E034
:1015B0009A8389835DC080911701813009F05AC0F8
:1015C000809113018093DE038091180180959091A2
:1015D0001301892B809313019091DE0380911301F5
:1015E000981741F08091D1038F5F8093D10381E000
:1015F0008093D203809113018F3FE1F581E08093C6
:10160000CF031A8219828091D803882399F181E04F
:101610008093DA032FC080911701823069F58091A1
:101620001A018093DE0380911801809590911A0130
:10163000892B80931A019091DE0380911A019817EB
:1016400041F08091D1038F5F8093D10381E080933B
:10165000D20380911A018F3F79F481E08093D903FE
:1016600081E090E09A83898307C01A82198205C0BD
:10167000000003C0000001C000008091D003882357
:1016800011F01A8219828091D703882F90E081701F
:101690009927892B11F01A82198289819A810F90DA
:1016A0000F90DF91CF910895CF93DF9300D0CDB706
:1016B000DEB79A83898389819A818130910511F1FE
:1016C000823091051CF4892B49F086C08230910547
:1016D00009F45EC0039709F46DC07EC08BEF809360
:1016E000150187EF809316018091D703882F90E032
:1016F00082709927892B09F472C081E090E09A8367
:1017000089836DC08091D703882F90E084709927DA
:10171000892BA9F0809115018E3F89F080911501E8
:101720008695806880931501809116018695806862
:101730008093160182E090E09A83898328C080918B
:10174000D703882F90E088709927892BD9F0809152
:1017500016018F3EB9F080911501882F90E0880F17
:10176000991F81608093150180911601882F90E068
:10177000880F991F81608093160183E090E09A831F
:10178000898305C081E090E09A83898329C028C0BD
:101790008091D703882F90E084709927892B29F0B6
:1017A00082E090E09A8389831BC081E090E09A8375
:1017B000898316C08091D703882F90E0887099277D
:1017C000892B29F083E090E09A83898309C081E026
:1017D00090E09A83898304C01A82198201C00000B4
:1017E0008091CF03882311F01A8219828091D0034F
:1017F000882311F01A8219828091D703882F90E0F4
:1018000081709927892B11F01A82198289819A8116
:101810000F900F90DF91CF910895CF93DF93CDB7C5
:10182000DEB728970FB6F894DEBF0FBECDBF9887FE
:101830008F838F819885092E000CAA0BBB0B40E08B
:1018400050E02BE030E0841B950B2817390708F493
:101850003EC18D5A9F4FFC010C9477101092D1031A
:101860000E9443038CEF92E00E942403198206C079
:1018700080E00E94A60289818F5F898389818438F4
:10188000B8F385E193E00E94240385E090E0988717
:101890008F832BC10E9443038FE293E00E942403B5
:1018A0001A8206C080E00E94A6028A818F5F8A8326
:1018B0008A818839B8F384E493E00E9424038091FC
:1018C000D103805D0E94F70286E090E098878F83C5
:1018D0000CC185E290E025E230E0F90120812B7F08
:1018E000FC01208383E40E94A6028FE90E94A602E5
:1018F00085E290E025E230E0F90120812460FC01DE
:10190000208380E00E94A60280E00E94A60280E080
:101910000E94A60280E00E94A6028091D1038A3034
:1019200030F48091D103805D0E94F70208C081E30A
:101930000E94F7028091D1038A5D0E94F70286E03F
:1019400090E098878F838091CF03882321F083E0F4
:1019500090E098878F838091DA03882309F4BAC0D6
:101960008AE090E098878F83B5C00E9443038CE49F
:1019700093E00E9424031B8206C080E00E94A6021E
:101980008B818F5F8B838B818435B8F38EE593E0F9
:101990000E9424038091D103805D0E94F70287E0BA
:1019A00090E098878F83A1C00E9443038EE693E066
:1019B0000E9424031C8206C080E00E94A6028C8143
:1019C0008F5F8C838C818336B8F38DE793E00E9420
:1019D00024038091D1038A3030F48091D103805D5B
:1019E0000E94F70208C081E30E94F7028091D103B0
:1019F0008A5D0E94F70288E090E098878F8375C027
:101A00008091D703882F90E082709927892B09F461
:101A100063C081E090E098878F835EC08091D2039D
:101A2000882309F45BC082E090E098878F8310924E
:101A3000D20354C08091CF03882309F051C089E0BC
:101A400090E098878F834CC08091D003882309F061
:101A500049C018861F8246C00E9443038BE893E06A
:101A60000E9424031D8206C080E00E94A6028D8190
:101A70008F5F8D838D81833AB8F385E193E00E9477
:101A8000240385E090E098878F832FC00E94430352
:101A90008EE993E00E9424031E8206C080E00E942B
:101AA000A6028E818F5F8E838E818336B8F38DEA96
:101AB00093E00E9424038BE090E098878F8315C009
:101AC0008091DA03882381F418861F820DC018865E
:101AD0001F820BC0000009C0000007C0000005C045
:101AE000000003C0000001C000008091D703882FD0
:101AF00090E081709927892B91F08F8198850397C9
:101B000071F08F819885079751F08F8198850A979A
:101B100031F08F8198850B9711F018861F82809184
:101B2000D003882341F08F819885089721F084E0C5
:101B300090E098878F838F81988528960FB6F894C8
:101B4000DEBF0FBECDBFDF91CF910895CF93DF935E
:101B500000D0CDB7DEB79A83898388E790E0FC0197
:101B6000808191819093D4038093D3038091D30398
:101B70009091D4038D3B924020F082E08093D70374
:101B80000AC08091D3039091D4038C32914018F411
:101B900081E08093D7038CE790E02CE730E0F901F7
:101BA00020812160FC01208381E090E00E944B01B4
:101BB00088E790E0FC01808191819093D603809327
:101BC000D5038091D5039091D6038D3B924030F0A0
:101BD0008091D70384608093D7030CC08091D50394
:101BE0009091D6038C32914028F48091D70388607D
:101BF0008093D7038091D3039091D4038C3B924080
:101C0000B8F48091D3039091D4038D32914080F049
:101C10008091D5039091D6038C3B924048F48091FB
:101C2000D5039091D6038D32914010F01092D703D6
:101C30008CE790E02CE730E0F90120812E7FFC0159
:101C4000208389819A810F900F90DF91CF91089521
:101C5000CF93DF93CDB7DEB78AE790E02AE730E095
:101C6000F9012081206EFC0120830000DF91CF91DB
:101C700008950F931F93CF93DF93CDB7DEB7679788
:101C80000FB6F894DEBF0FBECDBF81E290E0FC013D
:101C9000108282E290E02FEFFC01208384E290E04A
:101CA0002FEFFC01208385E290E023E0FC012083FC
:101CB00087E290E02FEFFC01208388E290E0FC01B6
:101CC00010828AE290E027E0FC0120838BE290E022
:101CD00028EFFC0120830E94280E0E9476038CE0EE
:101CE000EDEBF3E0DE011C9601900D928A95E1F791
:101CF00086E090E09A8789878FEF8B878B8580932A
:101D0000DF0381E090E0A0E0B0E08093E0039093F7
:101D1000E103A093E203B093E3038091E003909189
:101D2000E103A091E203B091E3038093E403909375
:101D3000E503A093E603B093E70383E494E0909374
:101D4000E9038093E8038B858093EA038CE291E0BA
:101D5000A0E0B0E08093EB039093EC03A093ED033D
:101D6000B093EE038091EB039091EC03A091ED030F
:101D7000B091EE038093EF039093F003A093F103EF
:101D8000B093F20381E996E09093F4038093F30318
:101D90008B858093F50388EC90E0A0E0B0E0809321
:101DA000F6039093F703A093F803B093F90380919F
:101DB000F6039091F703A091F803B091F903809393
:101DC000FA039093FB03A093FC03B093FD038BEA0B
:101DD0009AE09093FF038093FE038B858093000429
:101DE00082E390E0A0E0B0E08093010490930204CD
:101DF000A0930304B0930404809101049091020421
:101E0000A0910304B0910404809305049093060408
:101E1000A0930704B093080484E59BE090930A0420
:101E2000809309048B8580930B0484E190E0A0E00B
:101E3000B0E080930C0490930D04A0930E04B09333
:101E40000F0480910C0490910D04A0910E04B091A8
:101E50000F048093100490931104A0931204B09384
:101E6000130486EA9DE090931504809314048B85F7
:101E70008093160486E990E0A0E0B0E08093170418
:101E800090931804A0931904B0931A048091170436
:101E900090911804A0911904B0911A0480931B0426
:101EA00090931C04A0931D04B0931E048DE09CE04D
:101EB0009093200480931F048C859D85FC01818173
:101EC0009281A381B48189839A83AB83BC8381E0AF
:101ED00090E09E838D8325C08D819E81880F991F00
:101EE0009E012F5F3F4F820F931F0B96FC01808155
:101EF0009181FC01218132814381548189819A81C0
:101F0000AB81BC81BC01CD010E947B01DC01CB0116
:101F100089839A83AB83BC838D819E8101969E8346
:101F20008D832D813E8189859A8528173907A0F2F6
:101F300089819A81AB81BC81BC01CD010E94C8011D
:101F40000E94F60118861F82A0C08F819885880F95
:101F5000991F9E012F5F3F4F820F931F0B96FC012D
:101F600080819181FC0125813681478150858F8157
:101F70009885880F991FBE016F5F7F4F860F971F4F
:101F80000B96FC0180819181FC0181819281A3816A
:101F9000B481281739074A075B0708F445C08F81C9
:101FA0009885880F991F9E012F5F3F4F820F931FC7
:101FB0000B96FC01008111818F819885880F991FF4
:101FC0009E012F5F3F4F820F931F0B96FC01808174
:101FD0009181FC01218532858F819885880F991F19
:101FE000AE014F5F5F4F840F951F0B96FC01808100
:101FF0009181FC018081082E000C990BF901099553
:10200000F80180838F819885880F991F9E012F5F2B
:102010003F4F820F931F0B96FC0180819181FC0141
:1020200015821682178210868F819885880F991FD6
:102030009E012F5F3F4F820F931F0B96FC01608123
:1020400071818F819885880F991F9E012F5F3F4F67
:10205000820F931F0B96FC0180819181FC012581E9
:1020600036814781508589819A81AB81BC81820FFD
:10207000931FA41FB51FFB0185839683A783B08799
:102080008F819885019698878F832F8138858985E0
:102090009A852817390708F458CF00008091CA03A1
:1020A0008823E1F31092CA034DCFA1E21A2EAA1B96
:1020B000BB1BFD010DC0AA1FBB1FEE1FFF1FA217F8
:1020C000B307E407F50720F0A21BB30BE40BF50BF5
:1020D000661F771F881F991F1A9469F7609570957E
:1020E000809590959B01AC01BD01CF010895EE0F45
:1020F000FF1F0024001C0BBE0790F691E02D0994F1
:04210000F894FFCF81
:10210400010000000000000200000000AB0300001A
:10211400000001E080FBF740FB02E0FF000000004C
:102124000000005F00000007000700147F147F1404
:10213400242A7F2A12231308646236495522500048
:1021440005030000001C2241000041221C00140869
:102154003E081408083E080800503000000808082B
:102164000808006060000020100804023E51494540
:102174003E00427F400042615149462141454B3176
:102184001814127F1027454545393C4A4949300106
:10219400710905033649494936064949291E00365D
:1021A40036000000563600000814224100141414AE
:1021B40014140041221408020151090632497941DC
:1021C4003E7E1111117E7F494949363E41414122EB
:1021D4007F4141221C7F494949417F090909013E48
:1021E4004149497A7F0808087F00417F4100204027
:1021F400413F017F081422417F404040407F020C50
:10220400027F7F0408107F3E4141413E7F09090956
:10221400063E4151215E7F09192946464949493103
:1022240001017F01013F4040403F1F2040201F3FEC
:102234004038403F6314081463070870080761516D
:10224400494543007F4141000204081020004141F8
:102254007F000402010204404040404000010204A7
:102264000020545454787F4844443838444444202B
:10227400384444487F3854545418087E0901020CE9
:102284005252523E7F0804047800447D40002040AE
:10229400443D007F1028440000417F40007C041826
:1022A40004787C0804047838444444387C141414B6
:1022B40008081414187C7C08040408485454542056
:1022C400043F4440203C4040207C1C2040201C3CD7
:1022D4004030403C44281028440C5050503C446446
:1022E400544C44000836410000007F000000413691
:1022F40008001008081008000000000057656C630F
:102304006F6D6520746F20427269636B2042726541
:10231400616B6572004D6F7665206A6F79737469BD
:10232400636B20757020746F20737461727400473E
:10233400616D6520696E2070726F677265737320BA
:102344002E2E2E0073636F72653A20004C657665FD
:102354006C203120636F6D706C657465210043756A
:102364007272656E742073636F72653A200047471A
:102374002E2047616D65204F766572210046696E97
:10238400616C2073636F72653A200057656C636FEC
:102394006D6520746F206C6576656C2032004E6923
:1023A40063652120596F7520576F6E2100546F7437
:1023B400616C2073636F72653A20313500DF03EA84
:0A23C40003F50300040B04160400E7
:00000001FF
