:100000000C9446000C9465000C9465000C946500FB
:100010000C9465000C9465000C9465000C946500CC
:100020000C9465000C9465000C9465000C946500BC
:100030000C9465000C9470050C9465000C9465009C
:100040000C9465000C9465000C9465000C9465009C
:100050000C9465000C9465000C9465000C9465008C
:100060000C9465000C9465000C9465000C9465007C
:100070000C9465000C9465000C9465000C9465006C
:100080000C9465000C9465000C94650011241FBE4F
:10009000CFEFD0E4DEBFCDBF11E0A0E0B1E0E4E6F9
:1000A000F2E100E00BBF02C007900D92AA31B10748
:1000B000D9F721E0AAE1B1E001C01D92AF32B20749
:1000C000E1F70E9492060C9430090C940000CF9343
:1000D000DF9300D01F92CDB7DEB789836A834B834D
:1000E0008B81882371F08A81282F30E081E090E0B5
:1000F00002C0880F991F2A95E2F7982F8981892BD2
:100100000EC08A81282F30E081E090E002C0880F85
:10011000991F2A95E2F7982F9095898189230F904E
:100120000F900F90DF91CF910895CF93DF9300D080
:10013000CDB7DEB789836A838A81282F30E081E0DA
:1001400090E002C0880F991F2A95E2F7982F8981C5
:1001500089230F900F90DF91CF910895CF93DF9374
:10016000CDB7DEB781E00E94D5000000DF91CF91CE
:100170000895CF93DF93CDB7DEB784E690E00E9479
:10018000790188E30E94D50086E00E94D5008FE0C7
:100190000E94D50081E00E94D5008AE090E00E9494
:1001A00079010000DF91CF910895CF93DF931F92E3
:1001B000CDB7DEB789838BE290E02BE230E0F90126
:1001C00020812F7BFC01208382E290E02981FC01C9
:1001D00020838BE290E02BE230E0F901208120685F
:1001E000FC01208300008BE290E02BE230E0F9017B
:1001F00020812F77FC01208382E090E00E9479012A
:1002000000000F90DF91CF910895CF93DF931F925D
:10021000CDB7DEB789838BE290E02BE230E0F901C5
:1002200020812064FC01208382E290E02981FC018E
:1002300020838BE290E02BE230E0F90120812068FE
:10024000FC01208300008BE290E02BE230E0F9011A
:1002500020812F77FC01208381E090E00E947901CA
:1002600000000F90DF91CF910895CF93DF9300D0DE
:1002700000D0CDB7DEB78A837C836B830E94AE004B
:100280008A81898311C0898191E0980F99830E94A6
:1002900062018B819C819C012F5F3F4F3C832B83AC
:1002A000FC0180810E9405018B819C81FC01808181
:1002B000882349F700000F900F900F900F90DF9167
:1002C000CF910895CF93DF931F92CDB7DEB7898387
:1002D0008981813128F4898181580E94D50004C028
:1002E000898181550E94D50000000F90DF91CF9148
:1002F0000895CF93DF9300D000D000D0CDB7DEB704
:100300009E838D831A82198213C01C821B8206C0B1
:1003100000008B819C8101969C838B838B819C81C7
:1003200087309340ACF389819A8101969A838983BF
:1003300029813A818D819E812817390734F3000085
:1003400026960FB6F894DEBF0FBECDBFDF91CF91DA
:1003500008950F931F93CF93DF93CDB7DEB708E2D5
:1003600010E040E064E08FEF0E946700F8018083B6
:10037000000086E290E0FC018081809560E00E94B0
:100380009500882311F081E3D3C086E290E0FC0160
:100390008081809561E00E949500882311F084E3BC
:1003A000C7C086E290E0FC018081809562E00E94F7
:1003B0009500882311F087E3BBC086E290E0FC0142
:1003C0008081809563E00E949500882311F08AE285
:1003D000AFC008E210E040E065E08FEF0E946700E8
:1003E000F8018083000086E290E0FC018081809526
:1003F00060E00E949500882311F082E399C086E2B4
:1004000090E0FC018081809561E00E949500882346
:1004100011F085E38DC086E290E0FC01808180953B
:1004200062E00E949500882311F088E381C086E293
:1004300090E0FC018081809563E00E949500882314
:1004400011F080E375C008E210E040E066E08FEF55
:100450000E946700F8018083000086E290E0FC01C2
:100460008081809560E00E949500882311F083E3ED
:100470005FC086E290E0FC018081809561E00E948F
:100480009500882311F086E353C086E290E0FC01DA
:100490008081809562E00E949500882311F089E3B5
:1004A00047C086E290E0FC018081809563E00E9475
:1004B0009500882311F083E23BC008E210E040E0A1
:1004C00067E08FEF0E946700F8018083000086E2FA
:1004D00090E0FC018081809560E00E949500882377
:1004E00011F081E425C086E290E0FC0180818095D6
:1004F00061E00E949500882311F082E419C086E231
:1005000090E0FC018081809562E00E949500882344
:1005100011F083E40DC086E290E0FC0180818095BB
:1005200063E00E949500882311F084E401C080E01C
:10053000DF91CF911F910F910895CF93DF9300D05A
:100540001F92CDB7DEB78B8386E090E00E940F0844
:100550009A8389838B81882F90E00E940F089C01E9
:1005600089819A81FC013183208389819A81FC01F0
:10057000128289819A81FC01138289819A81FC010E
:10058000148289819A812B81FC01258389819A813A
:100590000F900F900F90DF91CF910895CF93DF933D
:1005A00000D0CDB7DEB79A83898389819A81FC0117
:1005B000948181E0992309F080E00F900F90DF9102
:1005C000CF910895CF93DF9300D0CDB7DEB79A8354
:1005D000898389819A81FC01248189819A81FC0126
:1005E000958181E0291709F080E00F900F90DF914D
:1005F000CF910895CF93DF9300D0CDB7DEB79A8324
:10060000898389819A81FC01128289819A81FC0106
:10061000138289819A81FC01148200000F900F904F
:10062000DF91CF910895CF93DF9300D01F92CDB784
:10063000DEB79A8389836B8389819A81FC01248147
:1006400089819A81FC0185812817C0F589819A8169
:10065000FC012081318189819A81FC018381882F6D
:1006600090E0820F931F2B81FC01208389819A8166
:10067000FC01838121E0280F89819A81FC01238379
:1006800089819A81FC01238189819A81FC0195816C
:10069000822F692F0E94E107892F282F89819A8153
:1006A000FC01238389819A81FC01848121E0280F48
:1006B00089819A81FC01248380E001C081E00F9050
:1006C0000F900F90DF91CF910895CF93DF9300D0DB
:1006D0001F92CDB7DEB79B838A838A819B81FC0101
:1006E0008481882309F447C08A819B81FC01208191
:1006F00031818A819B81FC018281882F90E0820F69
:10070000931FFC01808189838A819B81FC01208168
:1007100031818A819B81FC018281882F90E0820F48
:10072000931FFC0110828A819B81FC01828121E060
:10073000280F8A819B81FC0122838A819B81FC0195
:1007400022818A819B81FC019581822F692F0E94E1
:10075000E107892F282F8A819B81FC0122838A81CE
:100760009B81FC0184812FEF280F8A819B81FC01F2
:100770002483898101C080E00F900F900F90DF915A
:10078000CF910895CF93DF93CDB7DEB72C970FB6F7
:10079000F894DEBF0FBECDBF6D837E838F839887B5
:1007A00029873A874B875C878D819E81AF81B88589
:1007B00029853A854B855C85BC01CD010E94ED07FA
:1007C000DC01CB0189839A83AB83BC8389819A81C5
:1007D000AB81BC81892B8A2B8B2B29F489859A8547
:1007E000AB85BC8511C089859A85AB85BC858D8319
:1007F0009E83AF83B88789819A81AB81BC818987C9
:100800009A87AB87BC87D0CFBC01CD012C960FB6A1
:10081000F894DEBF0FBECDBFDF91CF910895CF9387
:10082000DF9300D01F92CDB7DEB78B8385E090E0D9
:100830000E940F089A8389838B81882F90E00E9401
:100840000F089C0189819A81FC0131832083898171
:100850009A81FC01128289819A81FC01138289812B
:100860009A812B81FC01248389819A810F900F90BA
:100870000F90DF91CF910895CF93DF9300D0CDB744
:10088000DEB79A83898389819A81FC01938181E013
:10089000992309F080E00F900F90DF91CF91089598
:1008A000CF93DF9300D0CDB7DEB79A838983898158
:1008B0009A81FC01238189819A81FC01948181E0E4
:1008C000291709F080E00F900F90DF91CF910895E4
:1008D000CF93DF9300D0CDB7DEB79A838983898128
:1008E0009A81FC01128289819A81FC0113820000A5
:1008F0000F900F90DF91CF910895CF93DF9300D0A9
:100900001F92CDB7DEB79A8389836B8389819A81E1
:10091000FC01238189819A81FC018481281730F5AB
:1009200089819A81FC012081318189819A81FC0130
:100930008281882F90E0820F931F2B81FC012083FE
:1009400089819A81FC01838121E0280F89819A8124
:10095000FC01238389819A81FC01828121E0280F97
:1009600089819A81FC01228380E001C081E00F909F
:100970000F900F90DF91CF910895CF93DF9300D028
:10098000CDB7DEB79A83898389819A81FC018381FF
:10099000882321F189819A81FC0183812FEF280F1F
:1009A00089819A81FC01238389819A81FC0182815A
:1009B0002FEF280F89819A81FC01228389819A81F6
:1009C000FC012081318189819A81FC018281882FFB
:1009D00090E0820F931FFC01808101C080E00F90A6
:1009E0000F90DF91CF910895CF93DF9300D000D087
:1009F000CDB7DEB769837A838B839C8389819A81A3
:100A0000AB81BC818093000190930101A09302010E
:100A1000B09303018091000190910101A091020126
:100A2000B091030180931B0190931C01A0931D01C1
:100A3000B0931E0100000F900F900F900F90DF9168
:100A4000CF910895CF93DF93CDB7DEB781E890E0E3
:100A50002BE0FC01208388E890E02DE730E0FC01EA
:100A6000318320838FE690E022E0FC01208384E83C
:100A700090E0FC01118210828091000190910101AF
:100A8000A0910201B091030180931B0190931C017E
:100A9000A0931D01B0931E018FE590E02FE530E09B
:100AA000F90120812068FC0120830000DF91CF91B3
:100AB0000895CF93DF93CDB7DEB781E890E0FC01D6
:100AC00010820000DF91CF910895CF93DF93CDB7CF
:100AD000DEB781E080931A010000DF91CF91089585
:100AE0001F920F9200905F000F92112400905B0004
:100AF0000F922F933F934F935F936F937F938F93B7
:100B00009F93AF93BF93EF93FF93CF93DF93CDB7B3
:100B1000DEB780911B0190911C01A0911D01B09145
:100B20001E010197A109B10980931B0190931C013B
:100B3000A0931D01B0931E0180911B0190911C0197
:100B4000A0911D01B0911E01892B8A2B8B2B91F452
:100B50000E9465058091000190910101A091020120
:100B6000B091030180931B0190931C01A0931D0180
:100B7000B0931E010000DF91CF91FF91EF91BF91E3
:100B8000AF919F918F917F916F915F914F913F9125
:100B90002F910F9000925B000F9000925F000F90DA
:100BA0001F901895CF93DF9300D01F92CDB7DEB77B
:100BB00089837B836A8389818A3031F48A819B812E
:100BC000BC018DE00E94D20580EC90E0FC018081A8
:100BD000882F90E080729927892BB1F386EC90E002
:100BE0002981FC01208380E090E00F900F900F900E
:100BF000DF91CF910895CF93DF9300D0CDB7DEB7CB
:100C00009A83898389819A81892B09F074C08091A4
:100C10001F01882361F480911F018F5F80931F0162
:100C200083E88093120180EE8093130167C0809166
:100C30001F01813049F480911F018F5F80931F0154
:100C400086E4809312015AC080911F01823049F4DA
:100C500080911F018F5F80931F018CE280931201AE
:100C60004DC080911F01833049F480911F018F5F37
:100C700080931F0188E18093120140C080911F0181
:100C8000843049F480911F018F5F80931F0188E3B6
:100C90008093120133C080911F01853049F4809107
:100CA0001F018F5F80931F0184E68093120126C08D
:100CB00080911F01863049F480911F018F5F8093DE
:100CC0001F0182EC8093120119C080911F018730AF
:100CD00049F480911F018F5F80931F0181E8809309
:100CE00012010CC080911F01883041F410921F0145
:100CF0001092120103C01A82198201C0000088E21A
:100D000090E020911201FC0120838BE290E0209181
:100D10001301FC01208389819A810F900F90DF914C
:100D2000CF9108950F931F93CF93DF93CDB7DEB785
:100D30002D970FB6F894DEBF0FBECDBF81E290E0D5
:100D4000FC01108282E290E02FEFFC01208387E219
:100D500090E02FEFFC01208388E290E0FC011082FC
:100D60008AE290E02FEFFC0120838BE290E0FC010F
:100D7000108280E291E09D878C8781E090E09A87E5
:100D800089878FEF8B878B858093200188EE93E096
:100D9000A0E0B0E08093210190932201A093230171
:100DA000B09324018091210190912201A09123010F
:100DB000B09124018093250190932601A0932701EF
:100DC000B09328018BEF95E090932A01809329013D
:100DD0008C859D85FC0181819281A381B481898369
:100DE0009A83AB83BC8381E090E09E838D8325C092
:100DF0008D819E81880F991F9E012F5F3F4F820F2B
:100E0000931F0B96FC0180819181FC01218132812D
:100E10004381548189819A81AB81BC81BC01CD0120
:100E20000E94C203DC01CB0189839A83AB83BC831C
:100E30008D819E8101969E838D832D813E81898542
:100E40009A8528173907A0F289819A81AB81BC81E4
:100E5000BC01CD010E94F4040E94220518861F8265
:100E6000A0C08F819885880F991F9E012F5F3F4FEB
:100E7000820F931F0B96FC0180819181FC012581DB
:100E80003681478150858F819885880F991FBE01D3
:100E90006F5F7F4F860F971F0B96FC0180819181BA
:100EA000FC0181819281A381B481281739074A0707
:100EB0005B0708F445C08F819885880F991F9E01B4
:100EC0002F5F3F4F820F931F0B96FC010081118112
:100ED0008F819885880F991F9E012F5F3F4F820F4A
:100EE000931F0B96FC0180819181FC012185328545
:100EF0008F819885880F991FAE014F5F5F4F840FD8
:100F0000951F0B96FC0180819181FC018081082E48
:100F1000000C990BF9010995F80180838F81988560
:100F2000880F991F9E012F5F3F4F820F931F0B96D3
:100F3000FC0180819181FC01158216821782108646
:100F40008F819885880F991F9E012F5F3F4F820FD9
:100F5000931F0B96FC01608171818F819885880FAA
:100F6000991F9E012F5F3F4F820F931F0B96FC012D
:100F700080819181FC01258136814781508589815D
:100F80009A81AB81BC81820F931FA41FB51FFB0107
:100F900085839683A783B0878F81988501969887EC
:100FA0008F832F81388589859A852817390708F41A
:100FB00058CF000080911A018823E1F310921A01A2
:100FC0004DCF991B79E004C0991F961708F0961B26
:100FD000881F7A95C9F780950895A1E21A2EAA1B59
:100FE000BB1BFD010DC0AA1FBB1FEE1FFF1FA217D9
:100FF000B307E407F50720F0A21BB30BE40BF50BD6
:10100000661F771F881F991F1A9469F7609570955E
:10101000809590959B01AC01BD01CF0108950F9380
:101020001F93CF93DF938230910510F482E090E01C
:10103000E0912D01F0912E0120E030E0A0E0B0E041
:10104000309719F140815181028113814817590766
:10105000C8F08417950769F4109731F012960C9335
:10106000129713961C9327C000932D0110932E0105
:1010700022C02115310519F04217530718F49A01BF
:10108000BD01EF01DF01F801DBCF21153105F9F0DA
:10109000281B390B2430310580F48A819B8161152E
:1010A000710521F0FB019383828304C090932E018C
:1010B00080932D01FE01329644C0FE01E20FF31F22
:1010C0008193919322503109398328833AC020912A
:1010D0002B0130912C01232B41F4209116013091EA
:1010E000170130932C0120932B0120911401309192
:1010F00015012115310541F42DB73EB74091180176
:1011000050911901241B350BE0912B01F0912C011A
:10111000E217F307A0F42E1B3F0B2817390778F0CE
:10112000AC014E5F5F4F2417350748F04E0F5F1F2D
:1011300050932C0140932B018193919302C0E0E0E6
:10114000F0E0CF01DF91CF911F910F910895CF93E0
:10115000DF93009709F481C0FC0132971382128259
:10116000A0912D01B0912E01109781F42081318141
:10117000820F931F20912B0130912C0128173907E2
:1011800051F5F0932C01E0932B0167C0ED0120E0B5
:1011900030E0CE17DF0740F44A815B819E014115A4
:1011A0005105F1F0EA01F5CFD383C283408151812B
:1011B000840F951FC817D90759F488819981840F26
:1011C000951F0296918380838A819B81938382837A
:1011D0002115310529F4F0932E01E0932D013DC036
:1011E000E901FB83EA8349915991C40FD51FEC179C
:1011F000FD0761F480819181840F951F0296E901BA
:1012000099838883828193819B838A83E0E0F0E0E5
:1012100012968D919C911397009719F0FD01DC01B6
:10122000F7CF8D919C9111979D012E5F3F4F820FBB
:10123000931F20912B0130912C012817390769F455
:10124000309729F410922E0110922D0102C01382C2
:101250001282B0932C01A0932B01DF91CF910895BE
:04126000F894FFCF30
:10126400010000000000000200000000D2050000A0
:0A127400000080FE00002F012000A2
:00000001FF
